{
  "transactions": [
    {
      "hash": "0x0f83ba50005fa85059dcd7a338a6f0a23d3cb352c4da051bd4744323ee04a078",
      "transactionType": "CALL",
      "contractName": null,
      "contractAddress": "0xa0b86991c6218b36c1d19d4a2e9eb0ce3606eb48",
      "function": "transfer(address,uint256)",
      "arguments": [
        "0x09E52AA36484c20288D9C148458Ea4DA991118Af",
        "46109841"
      ],
      "transaction": {
        "from": "0xc49b5e5b9da66b9126c1a62e9761e6b2147de3e1",
        "to": "0xa0b86991c6218b36c1d19d4a2e9eb0ce3606eb48",
        "gas": "0x13606",
        "value": "0x0",
        "input": "0xa9059cbb000000000000000000000000a3da77204c6656c83596d97e5c60b90d630f11040000000000000000000000000000000000000000000000000000000002bf9491",
        "nonce": "0x34",
        "chainId": "0x1"
      },
      "additionalContracts": [],
      "isFixedGasLimit": false
    },
    {
      "hash": "0xd357bbf43d985209a5adecd27b032dc3c96019a6902419939955b7e93d30356b",
      "transactionType": "CALL",
      "contractName": null,
      "contractAddress": "0xa3da77204c6656c83596d97e5c60b90d630f1104",
      "function": "invest(address,uint256)",
      "arguments": [
        "0x6ac25F85a8fA9a7D77B3f2165103Fc0F09642B6A",
        "46109841"
      ],
      "transaction": {
        "from": "0xc49b5e5b9da66b9126c1a62e9761e6b2147de3e1",
        "to": "0xa3da77204c6656c83596d97e5c60b90d630f1104",
        "gas": "0x9e055",
        "value": "0x0",
        "input": "0xb9b8c2460000000000000000000000001894259b98bdd9ed6c202749d2c0805b66b03c7f0000000000000000000000000000000000000000000000000000000002bf9491",
        "nonce": "0x35",
        "chainId": "0x1"
      },
      "additionalContracts": [],
      "isFixedGasLimit": false
    }
  ],
  "receipts": [
    {
      "status": "0x1",
      "cumulativeGasUsed": "0xea299e",
      "logs": [
        {
          "address": "0xa0b86991c6218b36c1d19d4a2e9eb0ce3606eb48",
          "topics": [
            "0xddf252ad1be2c89b69c2b068fc378daa952ba7f163c4a11628f55a4df523b3ef",
            "0x000000000000000000000000c49b5e5b9da66b9126c1a62e9761e6b2147de3e1",
            "0x000000000000000000000000a3da77204c6656c83596d97e5c60b90d630f1104"
          ],
          "data": "0x0000000000000000000000000000000000000000000000000000000002bf9491",
          "blockHash": "0x838ac70b639bddf6539c3da9e630f6c4b546d67cbda1581eac11803f959677ef",
          "blockNumber": "0x13c01a7",
          "blockTimestamp": "0x66de50ab",
          "transactionHash": "0x0f83ba50005fa85059dcd7a338a6f0a23d3cb352c4da051bd4744323ee04a078",
          "transactionIndex": "0x97",
          "logIndex": "0x19a",
          "removed": false
        }
      ],
      "logsBloom": "0x00008000000000000000000000000000000000000000000000000000000000000000000000000000000000000000000000000000008000000000000000000000000000000000000008000008000000000000000000080000000000000000000000000000000000000000200000000000000000000000000000000010000000000000000000000000000008000000000000000000010000000000000000000000000000000000200000040000000000000000000000000000000000000000000000000002000000000000000000000000000000000000000000000000000000000000000000000000000000000000000000000000000000000000000000000000",
      "type": "0x0",
      "transactionHash": "0x0f83ba50005fa85059dcd7a338a6f0a23d3cb352c4da051bd4744323ee04a078",
      "transactionIndex": "0x97",
      "blockHash": "0x838ac70b639bddf6539c3da9e630f6c4b546d67cbda1581eac11803f959677ef",
      "blockNumber": "0x13c01a7",
      "gasUsed": "0xe074",
      "effectiveGasPrice": "0x34dae5be",
      "from": "0xc49b5e5b9da66b9126c1a62e9761e6b2147de3e1",
      "to": "0xa0b86991c6218b36c1d19d4a2e9eb0ce3606eb48",
      "contractAddress": null
    },
    {
      "status": "0x1",
      "cumulativeGasUsed": "0x11523de",
      "logs": [
        {
          "address": "0xa0b86991c6218b36c1d19d4a2e9eb0ce3606eb48",
          "topics": [
            "0xddf252ad1be2c89b69c2b068fc378daa952ba7f163c4a11628f55a4df523b3ef",
            "0x000000000000000000000000a3da77204c6656c83596d97e5c60b90d630f1104",
            "0x0000000000000000000000001894259b98bdd9ed6c202749d2c0805b66b03c7f"
          ],
          "data": "0x0000000000000000000000000000000000000000000000000000000002bf9491",
          "blockHash": "0x838ac70b639bddf6539c3da9e630f6c4b546d67cbda1581eac11803f959677ef",
          "blockNumber": "0x13c01a7",
          "blockTimestamp": "0x66de50ab",
          "transactionHash": "0xd357bbf43d985209a5adecd27b032dc3c96019a6902419939955b7e93d30356b",
          "transactionIndex": "0xd2",
          "logIndex": "0x1bc",
          "removed": false
        },
        {
          "address": "0xa0b86991c6218b36c1d19d4a2e9eb0ce3606eb48",
          "topics": [
            "0x8c5be1e5ebec7d5bd14f71427d1e84f3dd0314c0f7b2291e5b200ac8c7c3b925",
            "0x0000000000000000000000001894259b98bdd9ed6c202749d2c0805b66b03c7f",
            "0x000000000000000000000000d63070114470f685b75b74d60eec7c1113d33a3d"
          ],
          "data": "0x0000000000000000000000000000000000000000000000000000000002bf9491",
          "blockHash": "0x838ac70b639bddf6539c3da9e630f6c4b546d67cbda1581eac11803f959677ef",
          "blockNumber": "0x13c01a7",
          "blockTimestamp": "0x66de50ab",
          "transactionHash": "0xd357bbf43d985209a5adecd27b032dc3c96019a6902419939955b7e93d30356b",
          "transactionIndex": "0xd2",
          "logIndex": "0x1bd",
          "removed": false
        },
        {
          "address": "0xd63070114470f685b75b74d60eec7c1113d33a3d",
          "topics": [
            "0xddf252ad1be2c89b69c2b068fc378daa952ba7f163c4a11628f55a4df523b3ef",
            "0x0000000000000000000000000000000000000000000000000000000000000000",
            "0x00000000000000000000000039cba2e8b93faacd9266821fb9320596e4aad410"
          ],
          "data": "0x00000000000000000000000000000000000000000000000057801c8b476a533b",
          "blockHash": "0x838ac70b639bddf6539c3da9e630f6c4b546d67cbda1581eac11803f959677ef",
          "blockNumber": "0x13c01a7",
          "blockTimestamp": "0x66de50ab",
          "transactionHash": "0xd357bbf43d985209a5adecd27b032dc3c96019a6902419939955b7e93d30356b",
          "transactionIndex": "0xd2",
          "logIndex": "0x1be",
          "removed": false
        },
        {
          "address": "0xd63070114470f685b75b74d60eec7c1113d33a3d",
          "topics": [
            "0xf66f28b40975dbb933913542c7e6a0f50a1d0f20aa74ea6e0efe65ab616323ec"
          ],
          "data": "0x00000000000000000000000000000000000000000000000000002f15fd35675f00000000000000000000000000000000000000000000000057801c8b476a533b",
          "blockHash": "0x838ac70b639bddf6539c3da9e630f6c4b546d67cbda1581eac11803f959677ef",
          "blockNumber": "0x13c01a7",
          "blockTimestamp": "0x66de50ab",
          "transactionHash": "0xd357bbf43d985209a5adecd27b032dc3c96019a6902419939955b7e93d30356b",
          "transactionIndex": "0xd2",
          "logIndex": "0x1bf",
          "removed": false
        },
        {
          "address": "0xa0b86991c6218b36c1d19d4a2e9eb0ce3606eb48",
          "topics": [
            "0xddf252ad1be2c89b69c2b068fc378daa952ba7f163c4a11628f55a4df523b3ef",
            "0x0000000000000000000000001894259b98bdd9ed6c202749d2c0805b66b03c7f",
            "0x000000000000000000000000d63070114470f685b75b74d60eec7c1113d33a3d"
          ],
          "data": "0x0000000000000000000000000000000000000000000000000000000002bf9491",
          "blockHash": "0x838ac70b639bddf6539c3da9e630f6c4b546d67cbda1581eac11803f959677ef",
          "blockNumber": "0x13c01a7",
          "blockTimestamp": "0x66de50ab",
          "transactionHash": "0xd357bbf43d985209a5adecd27b032dc3c96019a6902419939955b7e93d30356b",
          "transactionIndex": "0xd2",
          "logIndex": "0x1c0",
          "removed": false
        },
        {
          "address": "0xd63070114470f685b75b74d60eec7c1113d33a3d",
          "topics": [
            "0xddf252ad1be2c89b69c2b068fc378daa952ba7f163c4a11628f55a4df523b3ef",
            "0x0000000000000000000000000000000000000000000000000000000000000000",
            "0x0000000000000000000000001894259b98bdd9ed6c202749d2c0805b66b03c7f"
          ],
          "data": "0x000000000000000000000000000000000000000000000002785c4e47caa6b4b6",
          "blockHash": "0x838ac70b639bddf6539c3da9e630f6c4b546d67cbda1581eac11803f959677ef",
          "blockNumber": "0x13c01a7",
          "blockTimestamp": "0x66de50ab",
          "transactionHash": "0xd357bbf43d985209a5adecd27b032dc3c96019a6902419939955b7e93d30356b",
          "transactionIndex": "0xd2",
          "logIndex": "0x1c1",
          "removed": false
        },
        {
          "address": "0xd63070114470f685b75b74d60eec7c1113d33a3d",
          "topics": [
            "0xdcbc1c05240f31ff3ad067ef1ee35ce4997762752e3a095284754544f4c709d7",
            "0x0000000000000000000000001894259b98bdd9ed6c202749d2c0805b66b03c7f",
            "0x0000000000000000000000001894259b98bdd9ed6c202749d2c0805b66b03c7f"
          ],
          "data": "0x0000000000000000000000000000000000000000000000000000000002bf9491000000000000000000000000000000000000000000000002785c4e47caa6b4b6",
          "blockHash": "0x838ac70b639bddf6539c3da9e630f6c4b546d67cbda1581eac11803f959677ef",
          "blockNumber": "0x13c01a7",
          "blockTimestamp": "0x66de50ab",
          "transactionHash": "0xd357bbf43d985209a5adecd27b032dc3c96019a6902419939955b7e93d30356b",
          "transactionIndex": "0xd2",
          "logIndex": "0x1c2",
          "removed": false
        },
        {
          "address": "0x870ac11d48b15db9a138cf899d20f13f79ba00bc",
          "topics": [
            "0x7120161a7b3d31251e01294ab351ef15a41b91659a36032e4641bb89b121e321",
            "0xb48bb53f0f2690c71e8813f2dc7ed6fca9ac4b0ace3faa37b4a8e5ece38fa1a2"
          ],
          "data": "0x00000000000000000000000000000000000000000000000000000000a01c180a00000000000000000000000000000000000000000000000000000000a99904e1",
          "blockHash": "0x838ac70b639bddf6539c3da9e630f6c4b546d67cbda1581eac11803f959677ef",
          "blockNumber": "0x13c01a7",
          "blockTimestamp": "0x66de50ab",
          "transactionHash": "0xd357bbf43d985209a5adecd27b032dc3c96019a6902419939955b7e93d30356b",
          "transactionIndex": "0xd2",
          "logIndex": "0x1c3",
          "removed": false
        },
        {
          "address": "0xbbbbbbbbbb9cc5e90e3b3af64bdaf62c37eeffcb",
          "topics": [
            "0x9d9bd501d0657d7dfe415f779a620a62b78bc508ddc0891fbbd8b7ac0f8fce87",
            "0xb48bb53f0f2690c71e8813f2dc7ed6fca9ac4b0ace3faa37b4a8e5ece38fa1a2"
          ],
          "data": "0x00000000000000000000000000000000000000000000000000000000a01c180a0000000000000000000000000000000000000000000000000000000000c18c880000000000000000000000000000000000000000000000000000000000000000",
          "blockHash": "0x838ac70b639bddf6539c3da9e630f6c4b546d67cbda1581eac11803f959677ef",
          "blockNumber": "0x13c01a7",
          "blockTimestamp": "0x66de50ab",
          "transactionHash": "0xd357bbf43d985209a5adecd27b032dc3c96019a6902419939955b7e93d30356b",
          "transactionIndex": "0xd2",
          "logIndex": "0x1c4",
          "removed": false
        },
        {
          "address": "0x870ac11d48b15db9a138cf899d20f13f79ba00bc",
          "topics": [
            "0x7120161a7b3d31251e01294ab351ef15a41b91659a36032e4641bb89b121e321",
            "0x864c9b82eb066ae2c038ba763dfc0221001e62fc40925530056349633eb0a259"
          ],
          "data": "0x00000000000000000000000000000000000000000000000000000000682e64e700000000000000000000000000000000000000000000000000000000815a1953",
          "blockHash": "0x838ac70b639bddf6539c3da9e630f6c4b546d67cbda1581eac11803f959677ef",
          "blockNumber": "0x13c01a7",
          "blockTimestamp": "0x66de50ab",
          "transactionHash": "0xd357bbf43d985209a5adecd27b032dc3c96019a6902419939955b7e93d30356b",
          "transactionIndex": "0xd2",
          "logIndex": "0x1c5",
          "removed": false
        },
        {
          "address": "0xbbbbbbbbbb9cc5e90e3b3af64bdaf62c37eeffcb",
          "topics": [
            "0x9d9bd501d0657d7dfe415f779a620a62b78bc508ddc0891fbbd8b7ac0f8fce87",
            "0x864c9b82eb066ae2c038ba763dfc0221001e62fc40925530056349633eb0a259"
          ],
          "data": "0x00000000000000000000000000000000000000000000000000000000682e64e7000000000000000000000000000000000000000000000000000000000412317d0000000000000000000000000000000000000000000000000000000000000000",
          "blockHash": "0x838ac70b639bddf6539c3da9e630f6c4b546d67cbda1581eac11803f959677ef",
          "blockNumber": "0x13c01a7",
          "blockTimestamp": "0x66de50ab",
          "transactionHash": "0xd357bbf43d985209a5adecd27b032dc3c96019a6902419939955b7e93d30356b",
          "transactionIndex": "0xd2",
          "logIndex": "0x1c6",
          "removed": false
        },
        {
          "address": "0xbbbbbbbbbb9cc5e90e3b3af64bdaf62c37eeffcb",
          "topics": [
            "0xedf8870433c83823eb071d3df1caa8d008f12f6440918c20d75a3602cda30fe0",
            "0x54efdee08e272e929034a8f26f7ca34b1ebe364b275391169b28c6d7db24dbc8",
            "0x000000000000000000000000d63070114470f685b75b74d60eec7c1113d33a3d",
            "0x000000000000000000000000d63070114470f685b75b74d60eec7c1113d33a3d"
          ],
          "data": "0x0000000000000000000000000000000000000000000000000000000002bf9491000000000000000000000000000000000000000000000000000029efc8b18640",
          "blockHash": "0x838ac70b639bddf6539c3da9e630f6c4b546d67cbda1581eac11803f959677ef",
          "blockNumber": "0x13c01a7",
          "blockTimestamp": "0x66de50ab",
          "transactionHash": "0xd357bbf43d985209a5adecd27b032dc3c96019a6902419939955b7e93d30356b",
          "transactionIndex": "0xd2",
          "logIndex": "0x1c7",
          "removed": false
        },
        {
          "address": "0xa0b86991c6218b36c1d19d4a2e9eb0ce3606eb48",
          "topics": [
            "0xddf252ad1be2c89b69c2b068fc378daa952ba7f163c4a11628f55a4df523b3ef",
            "0x000000000000000000000000d63070114470f685b75b74d60eec7c1113d33a3d",
            "0x000000000000000000000000bbbbbbbbbb9cc5e90e3b3af64bdaf62c37eeffcb"
          ],
          "data": "0x0000000000000000000000000000000000000000000000000000000002bf9491",
          "blockHash": "0x838ac70b639bddf6539c3da9e630f6c4b546d67cbda1581eac11803f959677ef",
          "blockNumber": "0x13c01a7",
          "blockTimestamp": "0x66de50ab",
          "transactionHash": "0xd357bbf43d985209a5adecd27b032dc3c96019a6902419939955b7e93d30356b",
          "transactionIndex": "0xd2",
          "logIndex": "0x1c8",
          "removed": false
        },
        {
          "address": "0xd63070114470f685b75b74d60eec7c1113d33a3d",
          "topics": [
            "0x15c027cc4fd826d986cad358803439f7326d3aa4ed969ff90dbee4bc150f68e9"
          ],
          "data": "0x00000000000000000000000000000000000000000000000000002f15fff4fbf0",
          "blockHash": "0x838ac70b639bddf6539c3da9e630f6c4b546d67cbda1581eac11803f959677ef",
          "blockNumber": "0x13c01a7",
          "blockTimestamp": "0x66de50ab",
          "transactionHash": "0xd357bbf43d985209a5adecd27b032dc3c96019a6902419939955b7e93d30356b",
          "transactionIndex": "0xd2",
          "logIndex": "0x1c9",
          "removed": false
        },
        {
          "address": "0x1894259b98bdd9ed6c202749d2c0805b66b03c7f",
          "topics": [
            "0x6562511fab96c9d61fcca699b812b2d8084548a3ccc34b9e7ba471c913c5b48b"
          ],
          "data": "0x0000000000000000000000000000000000000000000000000000000002bf9491",
          "blockHash": "0x838ac70b639bddf6539c3da9e630f6c4b546d67cbda1581eac11803f959677ef",
          "blockNumber": "0x13c01a7",
          "blockTimestamp": "0x66de50ab",
          "transactionHash": "0xd357bbf43d985209a5adecd27b032dc3c96019a6902419939955b7e93d30356b",
          "transactionIndex": "0xd2",
          "logIndex": "0x1ca",
          "removed": false
        },
        {
          "address": "0xa3da77204c6656c83596d97e5c60b90d630f1104",
          "topics": [
            "0xad74235a8caeca33a6612cb543004e88ca3a8177f115e3d3269fa1353397258e"
          ],
          "data": "0x0000000000000000000000001894259b98bdd9ed6c202749d2c0805b66b03c7f0000000000000000000000000000000000000000000000000000000002bf9491",
          "blockHash": "0x838ac70b639bddf6539c3da9e630f6c4b546d67cbda1581eac11803f959677ef",
          "blockNumber": "0x13c01a7",
          "blockTimestamp": "0x66de50ab",
          "transactionHash": "0xd357bbf43d985209a5adecd27b032dc3c96019a6902419939955b7e93d30356b",
          "transactionIndex": "0xd2",
          "logIndex": "0x1cb",
          "removed": false
        }
      ],
      "logsBloom": "0x00000000000000000000000000000080000000000000000000000000000000001000400000000000000000000000020000000000008000010000000022a64000000000400010100008000008a00000000000004800200000000000080000002000000000020100008000200000000801000000000004000000000010000000000008400000000008100000000000000000000040010000004020000000000400220000000020200000840002000000000000100004008000100000000000000821000002000000000001000000000000000000000008000000000000040120400030000011000000000000200021000009000000000000000000000040000100",
      "type": "0x0",
      "transactionHash": "0xd357bbf43d985209a5adecd27b032dc3c96019a6902419939955b7e93d30356b",
      "transactionIndex": "0xd2",
      "blockHash": "0x838ac70b639bddf6539c3da9e630f6c4b546d67cbda1581eac11803f959677ef",
      "blockNumber": "0x13c01a7",
      "gasUsed": "0x72678",
      "effectiveGasPrice": "0x34dae5be",
      "from": "0xc49b5e5b9da66b9126c1a62e9761e6b2147de3e1",
      "to": "0xa3da77204c6656c83596d97e5c60b90d630f1104",
      "contractAddress": null
    }
  ],
  "libraries": [],
  "pending": [],
  "returns": {},
  "timestamp": 1725845685,
  "chain": 1,
  "commit": "fa4ea12"
}