{
  "transactions": [
    {
      "hash": "0x5b8fe4e1b7c2a44448bd843f24bcde928ca32872f3797188f600584f9e961513",
      "transactionType": "CALL",
      "contractName": null,
      "contractAddress": "0xa0b86991c6218b36c1d19d4a2e9eb0ce3606eb48",
      "function": "transfer(address,uint256)",
      "arguments": [
        "0x09E52AA36484c20288D9C148458Ea4DA991118Af",
        "114722874"
      ],
      "transaction": {
        "from": "0xc49b5e5b9da66b9126c1a62e9761e6b2147de3e1",
        "to": "0xa0b86991c6218b36c1d19d4a2e9eb0ce3606eb48",
        "gas": "0x13606",
        "value": "0x0",
        "input": "0xa9059cbb00000000000000000000000054f8c20e515ee40f32093cdbdc1624186ebc2aca0000000000000000000000000000000000000000000000000000000006d6883a",
        "nonce": "0x29",
        "chainId": "0x1"
      },
      "additionalContracts": [],
      "isFixedGasLimit": false
    },
    {
      "hash": "0x705e239c38019795725e0280892180d2d1f42f2b9cebe446bce5bbb49d7e83bf",
      "transactionType": "CALL",
      "contractName": null,
      "contractAddress": "0x54f8c20e515ee40f32093cdbdc1624186ebc2aca",
      "function": "invest(address,uint256)",
      "arguments": [
        "0x6ac25F85a8fA9a7D77B3f2165103Fc0F09642B6A",
        "114722874"
      ],
      "transaction": {
        "from": "0xc49b5e5b9da66b9126c1a62e9761e6b2147de3e1",
        "to": "0x54f8c20e515ee40f32093cdbdc1624186ebc2aca",
        "gas": "0x9e055",
        "value": "0x0",
        "input": "0xb9b8c2460000000000000000000000002ae647bfb0e18298692aadf55f35bddaa44839f80000000000000000000000000000000000000000000000000000000006d6883a",
        "nonce": "0x2a",
        "chainId": "0x1"
      },
      "additionalContracts": [],
      "isFixedGasLimit": false
    }
  ],
  "receipts": [
    {
      "status": "0x1",
      "cumulativeGasUsed": "0xaa699f",
      "logs": [
        {
          "address": "0xa0b86991c6218b36c1d19d4a2e9eb0ce3606eb48",
          "topics": [
            "0xddf252ad1be2c89b69c2b068fc378daa952ba7f163c4a11628f55a4df523b3ef",
            "0x000000000000000000000000c49b5e5b9da66b9126c1a62e9761e6b2147de3e1",
            "0x00000000000000000000000054f8c20e515ee40f32093cdbdc1624186ebc2aca"
          ],
          "data": "0x0000000000000000000000000000000000000000000000000000000006d6883a",
          "blockHash": "0x5d197b223388156e09f80d4d4ed07158dc066c984deae1cce5358c30506a33bf",
          "blockNumber": "0x13bff3f",
          "blockTimestamp": "0x66de339b",
          "transactionHash": "0x5b8fe4e1b7c2a44448bd843f24bcde928ca32872f3797188f600584f9e961513",
          "transactionIndex": "0xae",
          "logIndex": "0x10e",
          "removed": false
        }
      ],
      "logsBloom": "0x00008000000000000000000000000000000000000000000000000000000000000000000000000000000000000000000000000000000000000000000000000400000000000000000008000008000000000000000000080000000000000000000000000000000000000000000004000000000000000000000000000010000000000000000000000000000008000000000000000000010000000000000000000000000000000000200000000000000000000000000000000000000000000000000000000002000000000000000000000000000000000000000000000000000000040000000000000000000000000000000000000000000000000000000000000000",
      "type": "0x0",
      "transactionHash": "0x5b8fe4e1b7c2a44448bd843f24bcde928ca32872f3797188f600584f9e961513",
      "transactionIndex": "0xae",
      "blockHash": "0x5d197b223388156e09f80d4d4ed07158dc066c984deae1cce5358c30506a33bf",
      "blockNumber": "0x13bff3f",
      "gasUsed": "0xe074",
      "effectiveGasPrice": "0x301daf05",
      "from": "0xc49b5e5b9da66b9126c1a62e9761e6b2147de3e1",
      "to": "0xa0b86991c6218b36c1d19d4a2e9eb0ce3606eb48",
      "contractAddress": null
    },
    {
      "status": "0x1",
      "cumulativeGasUsed": "0xb19017",
      "logs": [
        {
          "address": "0xa0b86991c6218b36c1d19d4a2e9eb0ce3606eb48",
          "topics": [
            "0xddf252ad1be2c89b69c2b068fc378daa952ba7f163c4a11628f55a4df523b3ef",
            "0x00000000000000000000000054f8c20e515ee40f32093cdbdc1624186ebc2aca",
            "0x0000000000000000000000002ae647bfb0e18298692aadf55f35bddaa44839f8"
          ],
          "data": "0x0000000000000000000000000000000000000000000000000000000006d6883a",
          "blockHash": "0x5d197b223388156e09f80d4d4ed07158dc066c984deae1cce5358c30506a33bf",
          "blockNumber": "0x13bff3f",
          "blockTimestamp": "0x66de339b",
          "transactionHash": "0x705e239c38019795725e0280892180d2d1f42f2b9cebe446bce5bbb49d7e83bf",
          "transactionIndex": "0xaf",
          "logIndex": "0x10f",
          "removed": false
        },
        {
          "address": "0xa0b86991c6218b36c1d19d4a2e9eb0ce3606eb48",
          "topics": [
            "0x8c5be1e5ebec7d5bd14f71427d1e84f3dd0314c0f7b2291e5b200ac8c7c3b925",
            "0x0000000000000000000000002ae647bfb0e18298692aadf55f35bddaa44839f8",
            "0x000000000000000000000000d63070114470f685b75b74d60eec7c1113d33a3d"
          ],
          "data": "0x0000000000000000000000000000000000000000000000000000000006d6883a",
          "blockHash": "0x5d197b223388156e09f80d4d4ed07158dc066c984deae1cce5358c30506a33bf",
          "blockNumber": "0x13bff3f",
          "blockTimestamp": "0x66de339b",
          "transactionHash": "0x705e239c38019795725e0280892180d2d1f42f2b9cebe446bce5bbb49d7e83bf",
          "transactionIndex": "0xaf",
          "logIndex": "0x110",
          "removed": false
        },
        {
          "address": "0xd63070114470f685b75b74d60eec7c1113d33a3d",
          "topics": [
            "0xddf252ad1be2c89b69c2b068fc378daa952ba7f163c4a11628f55a4df523b3ef",
            "0x0000000000000000000000000000000000000000000000000000000000000000",
            "0x00000000000000000000000039cba2e8b93faacd9266821fb9320596e4aad410"
          ],
          "data": "0x000000000000000000000000000000000000000000000000e03d47808e643002",
          "blockHash": "0x5d197b223388156e09f80d4d4ed07158dc066c984deae1cce5358c30506a33bf",
          "blockNumber": "0x13bff3f",
          "blockTimestamp": "0x66de339b",
          "transactionHash": "0x705e239c38019795725e0280892180d2d1f42f2b9cebe446bce5bbb49d7e83bf",
          "transactionIndex": "0xaf",
          "logIndex": "0x111",
          "removed": false
        },
        {
          "address": "0xd63070114470f685b75b74d60eec7c1113d33a3d",
          "topics": [
            "0xf66f28b40975dbb933913542c7e6a0f50a1d0f20aa74ea6e0efe65ab616323ec"
          ],
          "data": "0x00000000000000000000000000000000000000000000000000002f059c65902d000000000000000000000000000000000000000000000000e03d47808e643002",
          "blockHash": "0x5d197b223388156e09f80d4d4ed07158dc066c984deae1cce5358c30506a33bf",
          "blockNumber": "0x13bff3f",
          "blockTimestamp": "0x66de339b",
          "transactionHash": "0x705e239c38019795725e0280892180d2d1f42f2b9cebe446bce5bbb49d7e83bf",
          "transactionIndex": "0xaf",
          "logIndex": "0x112",
          "removed": false
        },
        {
          "address": "0xa0b86991c6218b36c1d19d4a2e9eb0ce3606eb48",
          "topics": [
            "0xddf252ad1be2c89b69c2b068fc378daa952ba7f163c4a11628f55a4df523b3ef",
            "0x0000000000000000000000002ae647bfb0e18298692aadf55f35bddaa44839f8",
            "0x000000000000000000000000d63070114470f685b75b74d60eec7c1113d33a3d"
          ],
          "data": "0x0000000000000000000000000000000000000000000000000000000006d6883a",
          "blockHash": "0x5d197b223388156e09f80d4d4ed07158dc066c984deae1cce5358c30506a33bf",
          "blockNumber": "0x13bff3f",
          "blockTimestamp": "0x66de339b",
          "transactionHash": "0x705e239c38019795725e0280892180d2d1f42f2b9cebe446bce5bbb49d7e83bf",
          "transactionIndex": "0xaf",
          "logIndex": "0x113",
          "removed": false
        },
        {
          "address": "0xd63070114470f685b75b74d60eec7c1113d33a3d",
          "topics": [
            "0xddf252ad1be2c89b69c2b068fc378daa952ba7f163c4a11628f55a4df523b3ef",
            "0x0000000000000000000000000000000000000000000000000000000000000000",
            "0x0000000000000000000000002ae647bfb0e18298692aadf55f35bddaa44839f8"
          ],
          "data": "0x000000000000000000000000000000000000000000000006255a4572bb610037",
          "blockHash": "0x5d197b223388156e09f80d4d4ed07158dc066c984deae1cce5358c30506a33bf",
          "blockNumber": "0x13bff3f",
          "blockTimestamp": "0x66de339b",
          "transactionHash": "0x705e239c38019795725e0280892180d2d1f42f2b9cebe446bce5bbb49d7e83bf",
          "transactionIndex": "0xaf",
          "logIndex": "0x114",
          "removed": false
        },
        {
          "address": "0xd63070114470f685b75b74d60eec7c1113d33a3d",
          "topics": [
            "0xdcbc1c05240f31ff3ad067ef1ee35ce4997762752e3a095284754544f4c709d7",
            "0x0000000000000000000000002ae647bfb0e18298692aadf55f35bddaa44839f8",
            "0x0000000000000000000000002ae647bfb0e18298692aadf55f35bddaa44839f8"
          ],
          "data": "0x0000000000000000000000000000000000000000000000000000000006d6883a000000000000000000000000000000000000000000000006255a4572bb610037",
          "blockHash": "0x5d197b223388156e09f80d4d4ed07158dc066c984deae1cce5358c30506a33bf",
          "blockNumber": "0x13bff3f",
          "blockTimestamp": "0x66de339b",
          "transactionHash": "0x705e239c38019795725e0280892180d2d1f42f2b9cebe446bce5bbb49d7e83bf",
          "transactionIndex": "0xaf",
          "logIndex": "0x115",
          "removed": false
        },
        {
          "address": "0x870ac11d48b15db9a138cf899d20f13f79ba00bc",
          "topics": [
            "0x7120161a7b3d31251e01294ab351ef15a41b91659a36032e4641bb89b121e321",
            "0xb48bb53f0f2690c71e8813f2dc7ed6fca9ac4b0ace3faa37b4a8e5ece38fa1a2"
          ],
          "data": "0x00000000000000000000000000000000000000000000000000000000a045e67a00000000000000000000000000000000000000000000000000000000a9bf3d46",
          "blockHash": "0x5d197b223388156e09f80d4d4ed07158dc066c984deae1cce5358c30506a33bf",
          "blockNumber": "0x13bff3f",
          "blockTimestamp": "0x66de339b",
          "transactionHash": "0x705e239c38019795725e0280892180d2d1f42f2b9cebe446bce5bbb49d7e83bf",
          "transactionIndex": "0xaf",
          "logIndex": "0x116",
          "removed": false
        },
        {
          "address": "0xbbbbbbbbbb9cc5e90e3b3af64bdaf62c37eeffcb",
          "topics": [
            "0x9d9bd501d0657d7dfe415f779a620a62b78bc508ddc0891fbbd8b7ac0f8fce87",
            "0xb48bb53f0f2690c71e8813f2dc7ed6fca9ac4b0ace3faa37b4a8e5ece38fa1a2"
          ],
          "data": "0x00000000000000000000000000000000000000000000000000000000a045e67a0000000000000000000000000000000000000000000000000000000008e75b480000000000000000000000000000000000000000000000000000000000000000",
          "blockHash": "0x5d197b223388156e09f80d4d4ed07158dc066c984deae1cce5358c30506a33bf",
          "blockNumber": "0x13bff3f",
          "blockTimestamp": "0x66de339b",
          "transactionHash": "0x705e239c38019795725e0280892180d2d1f42f2b9cebe446bce5bbb49d7e83bf",
          "transactionIndex": "0xaf",
          "logIndex": "0x117",
          "removed": false
        },
        {
          "address": "0x870ac11d48b15db9a138cf899d20f13f79ba00bc",
          "topics": [
            "0x7120161a7b3d31251e01294ab351ef15a41b91659a36032e4641bb89b121e321",
            "0x864c9b82eb066ae2c038ba763dfc0221001e62fc40925530056349633eb0a259"
          ],
          "data": "0x00000000000000000000000000000000000000000000000000000000683711590000000000000000000000000000000000000000000000000000000081c098c6",
          "blockHash": "0x5d197b223388156e09f80d4d4ed07158dc066c984deae1cce5358c30506a33bf",
          "blockNumber": "0x13bff3f",
          "blockTimestamp": "0x66de339b",
          "transactionHash": "0x705e239c38019795725e0280892180d2d1f42f2b9cebe446bce5bbb49d7e83bf",
          "transactionIndex": "0xaf",
          "logIndex": "0x118",
          "removed": false
        },
        {
          "address": "0xbbbbbbbbbb9cc5e90e3b3af64bdaf62c37eeffcb",
          "topics": [
            "0x9d9bd501d0657d7dfe415f779a620a62b78bc508ddc0891fbbd8b7ac0f8fce87",
            "0x864c9b82eb066ae2c038ba763dfc0221001e62fc40925530056349633eb0a259"
          ],
          "data": "0x000000000000000000000000000000000000000000000000000000006837115900000000000000000000000000000000000000000000000000000000044002f90000000000000000000000000000000000000000000000000000000000000000",
          "blockHash": "0x5d197b223388156e09f80d4d4ed07158dc066c984deae1cce5358c30506a33bf",
          "blockNumber": "0x13bff3f",
          "blockTimestamp": "0x66de339b",
          "transactionHash": "0x705e239c38019795725e0280892180d2d1f42f2b9cebe446bce5bbb49d7e83bf",
          "transactionIndex": "0xaf",
          "logIndex": "0x119",
          "removed": false
        },
        {
          "address": "0xbbbbbbbbbb9cc5e90e3b3af64bdaf62c37eeffcb",
          "topics": [
            "0xedf8870433c83823eb071d3df1caa8d008f12f6440918c20d75a3602cda30fe0",
            "0x54efdee08e272e929034a8f26f7ca34b1ebe364b275391169b28c6d7db24dbc8",
            "0x000000000000000000000000d63070114470f685b75b74d60eec7c1113d33a3d",
            "0x000000000000000000000000d63070114470f685b75b74d60eec7c1113d33a3d"
          ],
          "data": "0x0000000000000000000000000000000000000000000000000000000006d6883a0000000000000000000000000000000000000000000000000000685700270280",
          "blockHash": "0x5d197b223388156e09f80d4d4ed07158dc066c984deae1cce5358c30506a33bf",
          "blockNumber": "0x13bff3f",
          "blockTimestamp": "0x66de339b",
          "transactionHash": "0x705e239c38019795725e0280892180d2d1f42f2b9cebe446bce5bbb49d7e83bf",
          "transactionIndex": "0xaf",
          "logIndex": "0x11a",
          "removed": false
        },
        {
          "address": "0xa0b86991c6218b36c1d19d4a2e9eb0ce3606eb48",
          "topics": [
            "0xddf252ad1be2c89b69c2b068fc378daa952ba7f163c4a11628f55a4df523b3ef",
            "0x000000000000000000000000d63070114470f685b75b74d60eec7c1113d33a3d",
            "0x000000000000000000000000bbbbbbbbbb9cc5e90e3b3af64bdaf62c37eeffcb"
          ],
          "data": "0x0000000000000000000000000000000000000000000000000000000006d6883a",
          "blockHash": "0x5d197b223388156e09f80d4d4ed07158dc066c984deae1cce5358c30506a33bf",
          "blockNumber": "0x13bff3f",
          "blockTimestamp": "0x66de339b",
          "transactionHash": "0x705e239c38019795725e0280892180d2d1f42f2b9cebe446bce5bbb49d7e83bf",
          "transactionIndex": "0xaf",
          "logIndex": "0x11b",
          "removed": false
        },
        {
          "address": "0xd63070114470f685b75b74d60eec7c1113d33a3d",
          "topics": [
            "0x15c027cc4fd826d986cad358803439f7326d3aa4ed969ff90dbee4bc150f68e9"
          ],
          "data": "0x00000000000000000000000000000000000000000000000000002f05a33c1867",
          "blockHash": "0x5d197b223388156e09f80d4d4ed07158dc066c984deae1cce5358c30506a33bf",
          "blockNumber": "0x13bff3f",
          "blockTimestamp": "0x66de339b",
          "transactionHash": "0x705e239c38019795725e0280892180d2d1f42f2b9cebe446bce5bbb49d7e83bf",
          "transactionIndex": "0xaf",
          "logIndex": "0x11c",
          "removed": false
        },
        {
          "address": "0x2ae647bfb0e18298692aadf55f35bddaa44839f8",
          "topics": [
            "0x6562511fab96c9d61fcca699b812b2d8084548a3ccc34b9e7ba471c913c5b48b"
          ],
          "data": "0x0000000000000000000000000000000000000000000000000000000006d6883a",
          "blockHash": "0x5d197b223388156e09f80d4d4ed07158dc066c984deae1cce5358c30506a33bf",
          "blockNumber": "0x13bff3f",
          "blockTimestamp": "0x66de339b",
          "transactionHash": "0x705e239c38019795725e0280892180d2d1f42f2b9cebe446bce5bbb49d7e83bf",
          "transactionIndex": "0xaf",
          "logIndex": "0x11d",
          "removed": false
        },
        {
          "address": "0x54f8c20e515ee40f32093cdbdc1624186ebc2aca",
          "topics": [
            "0xad74235a8caeca33a6612cb543004e88ca3a8177f115e3d3269fa1353397258e"
          ],
          "data": "0x0000000000000000000000002ae647bfb0e18298692aadf55f35bddaa44839f80000000000000000000000000000000000000000000000000000000006d6883a",
          "blockHash": "0x5d197b223388156e09f80d4d4ed07158dc066c984deae1cce5358c30506a33bf",
          "blockNumber": "0x13bff3f",
          "blockTimestamp": "0x66de339b",
          "transactionHash": "0x705e239c38019795725e0280892180d2d1f42f2b9cebe446bce5bbb49d7e83bf",
          "transactionIndex": "0xaf",
          "logIndex": "0x11e",
          "removed": false
        }
      ],
      "logsBloom": "0x00000000000000000000000000000080000000000000000000000000000000001000400000000000000000000000020000200000000000012000000020a44400000000400010100008000008a00000000000004800200000000000080000002000000000020000008000000004000801000000000004000000000010000000000008400000000008100000000000000040040000010000004020000000000400220000000020200000800000000010000000100004008000000000000000000821000002000000000001000000000000000000800008000000000000040020440010000411000000000000200021000009000000000000000000000040000020",
      "type": "0x0",
      "transactionHash": "0x705e239c38019795725e0280892180d2d1f42f2b9cebe446bce5bbb49d7e83bf",
      "transactionIndex": "0xaf",
      "blockHash": "0x5d197b223388156e09f80d4d4ed07158dc066c984deae1cce5358c30506a33bf",
      "blockNumber": "0x13bff3f",
      "gasUsed": "0x72678",
      "effectiveGasPrice": "0x301daf05",
      "from": "0xc49b5e5b9da66b9126c1a62e9761e6b2147de3e1",
      "to": "0x54f8c20e515ee40f32093cdbdc1624186ebc2aca",
      "contractAddress": null
    }
  ],
  "libraries": [],
  "pending": [],
  "returns": {},
  "timestamp": 1725838242,
  "chain": 1,
  "commit": "fa4ea12"
}