{
  "transactions": [
    {
      "hash": "0x217716cf6f99aae756ed88632af2268829760a91b5f2ddbd40b47b13e6e5e25a",
      "transactionType": "CALL",
      "contractName": null,
      "contractAddress": "0xa0b86991c6218b36c1d19d4a2e9eb0ce3606eb48",
      "function": "transfer(address,uint256)",
      "arguments": [
        "0x09E52AA36484c20288D9C148458Ea4DA991118Af",
        "46129840"
      ],
      "transaction": {
        "from": "0xc49b5e5b9da66b9126c1a62e9761e6b2147de3e1",
        "to": "0xa0b86991c6218b36c1d19d4a2e9eb0ce3606eb48",
        "gas": "0x13606",
        "value": "0x0",
        "input": "0xa9059cbb00000000000000000000000009e52aa36484c20288d9c148458ea4da991118af0000000000000000000000000000000000000000000000000000000002bfe2b0",
        "nonce": "0x41",
        "chainId": "0x1"
      },
      "additionalContracts": [],
      "isFixedGasLimit": false
    },
    {
      "hash": "0x99849b97cd8af7eef2e81fb69523da9649c8c9cc359403867dd5b00ec4ac1c2f",
      "transactionType": "CALL",
      "contractName": null,
      "contractAddress": "0x09e52aa36484c20288d9c148458ea4da991118af",
      "function": "invest(address,uint256)",
      "arguments": [
        "0x6ac25F85a8fA9a7D77B3f2165103Fc0F09642B6A",
        "46129840"
      ],
      "transaction": {
        "from": "0xc49b5e5b9da66b9126c1a62e9761e6b2147de3e1",
        "to": "0x09e52aa36484c20288d9c148458ea4da991118af",
        "gas": "0x9e055",
        "value": "0x0",
        "input": "0xb9b8c2460000000000000000000000006ac25f85a8fa9a7d77b3f2165103fc0f09642b6a0000000000000000000000000000000000000000000000000000000002bfe2b0",
        "nonce": "0x42",
        "chainId": "0x1"
      },
      "additionalContracts": [],
      "isFixedGasLimit": false
    }
  ],
  "receipts": [
    {
      "status": "0x1",
      "cumulativeGasUsed": "0x11519a1",
      "logs": [
        {
          "address": "0xa0b86991c6218b36c1d19d4a2e9eb0ce3606eb48",
          "topics": [
            "0xddf252ad1be2c89b69c2b068fc378daa952ba7f163c4a11628f55a4df523b3ef",
            "0x000000000000000000000000c49b5e5b9da66b9126c1a62e9761e6b2147de3e1",
            "0x00000000000000000000000009e52aa36484c20288d9c148458ea4da991118af"
          ],
          "data": "0x0000000000000000000000000000000000000000000000000000000002bfe2b0",
          "blockHash": "0x20168934f4a3e315e9d2107e7039d9a233c515f5859020664e799f3521862151",
          "blockNumber": "0x13c0367",
          "blockTimestamp": "0x66de65ab",
          "transactionHash": "0x217716cf6f99aae756ed88632af2268829760a91b5f2ddbd40b47b13e6e5e25a",
          "transactionIndex": "0xca",
          "logIndex": "0x20b",
          "removed": false
        }
      ],
      "logsBloom": "0x00008000000000000000000000000000000000000000000000000000000000000000000000000000000000000000000000000800000000000000000000000000000000000000000008000008000000000000000000080000000000000000000000000000000000000000000000000000000000000000000000000010000000000000000000000000000008000000000000000000010000000000000000000000000000000080200000002000000000000000000000000000000000000000000000000002000000000000000000000000000000000000000000000000000000000000000000000000000000000000000000000000000000000000000000000000",
      "type": "0x0",
      "transactionHash": "0x217716cf6f99aae756ed88632af2268829760a91b5f2ddbd40b47b13e6e5e25a",
      "transactionIndex": "0xca",
      "blockHash": "0x20168934f4a3e315e9d2107e7039d9a233c515f5859020664e799f3521862151",
      "blockNumber": "0x13c0367",
      "gasUsed": "0xe074",
      "effectiveGasPrice": "0x4d450840",
      "from": "0xc49b5e5b9da66b9126c1a62e9761e6b2147de3e1",
      "to": "0xa0b86991c6218b36c1d19d4a2e9eb0ce3606eb48",
      "contractAddress": null
    },
    {
      "status": "0x1",
      "cumulativeGasUsed": "0x11c4019",
      "logs": [
        {
          "address": "0xa0b86991c6218b36c1d19d4a2e9eb0ce3606eb48",
          "topics": [
            "0xddf252ad1be2c89b69c2b068fc378daa952ba7f163c4a11628f55a4df523b3ef",
            "0x00000000000000000000000009e52aa36484c20288d9c148458ea4da991118af",
            "0x0000000000000000000000006ac25f85a8fa9a7d77b3f2165103fc0f09642b6a"
          ],
          "data": "0x0000000000000000000000000000000000000000000000000000000002bfe2b0",
          "blockHash": "0x20168934f4a3e315e9d2107e7039d9a233c515f5859020664e799f3521862151",
          "blockNumber": "0x13c0367",
          "blockTimestamp": "0x66de65ab",
          "transactionHash": "0x99849b97cd8af7eef2e81fb69523da9649c8c9cc359403867dd5b00ec4ac1c2f",
          "transactionIndex": "0xcb",
          "logIndex": "0x20c",
          "removed": false
        },
        {
          "address": "0xa0b86991c6218b36c1d19d4a2e9eb0ce3606eb48",
          "topics": [
            "0x8c5be1e5ebec7d5bd14f71427d1e84f3dd0314c0f7b2291e5b200ac8c7c3b925",
            "0x0000000000000000000000006ac25f85a8fa9a7d77b3f2165103fc0f09642b6a",
            "0x000000000000000000000000d63070114470f685b75b74d60eec7c1113d33a3d"
          ],
          "data": "0x0000000000000000000000000000000000000000000000000000000002bfe2b0",
          "blockHash": "0x20168934f4a3e315e9d2107e7039d9a233c515f5859020664e799f3521862151",
          "blockNumber": "0x13c0367",
          "blockTimestamp": "0x66de65ab",
          "transactionHash": "0x99849b97cd8af7eef2e81fb69523da9649c8c9cc359403867dd5b00ec4ac1c2f",
          "transactionIndex": "0xcb",
          "logIndex": "0x20d",
          "removed": false
        },
        {
          "address": "0xd63070114470f685b75b74d60eec7c1113d33a3d",
          "topics": [
            "0xddf252ad1be2c89b69c2b068fc378daa952ba7f163c4a11628f55a4df523b3ef",
            "0x0000000000000000000000000000000000000000000000000000000000000000",
            "0x00000000000000000000000039cba2e8b93faacd9266821fb9320596e4aad410"
          ],
          "data": "0x0000000000000000000000000000000000000000000000006a729b884f172c7d",
          "blockHash": "0x20168934f4a3e315e9d2107e7039d9a233c515f5859020664e799f3521862151",
          "blockNumber": "0x13c0367",
          "blockTimestamp": "0x66de65ab",
          "transactionHash": "0x99849b97cd8af7eef2e81fb69523da9649c8c9cc359403867dd5b00ec4ac1c2f",
          "transactionIndex": "0xcb",
          "logIndex": "0x20e",
          "removed": false
        },
        {
          "address": "0xd63070114470f685b75b74d60eec7c1113d33a3d",
          "topics": [
            "0xf66f28b40975dbb933913542c7e6a0f50a1d0f20aa74ea6e0efe65ab616323ec"
          ],
          "data": "0x00000000000000000000000000000000000000000000000000002ee131363bef0000000000000000000000000000000000000000000000006a729b884f172c7d",
          "blockHash": "0x20168934f4a3e315e9d2107e7039d9a233c515f5859020664e799f3521862151",
          "blockNumber": "0x13c0367",
          "blockTimestamp": "0x66de65ab",
          "transactionHash": "0x99849b97cd8af7eef2e81fb69523da9649c8c9cc359403867dd5b00ec4ac1c2f",
          "transactionIndex": "0xcb",
          "logIndex": "0x20f",
          "removed": false
        },
        {
          "address": "0xa0b86991c6218b36c1d19d4a2e9eb0ce3606eb48",
          "topics": [
            "0xddf252ad1be2c89b69c2b068fc378daa952ba7f163c4a11628f55a4df523b3ef",
            "0x0000000000000000000000006ac25f85a8fa9a7d77b3f2165103fc0f09642b6a",
            "0x000000000000000000000000d63070114470f685b75b74d60eec7c1113d33a3d"
          ],
          "data": "0x0000000000000000000000000000000000000000000000000000000002bfe2b0",
          "blockHash": "0x20168934f4a3e315e9d2107e7039d9a233c515f5859020664e799f3521862151",
          "blockNumber": "0x13c0367",
          "blockTimestamp": "0x66de65ab",
          "transactionHash": "0x99849b97cd8af7eef2e81fb69523da9649c8c9cc359403867dd5b00ec4ac1c2f",
          "transactionIndex": "0xcb",
          "logIndex": "0x210",
          "removed": false
        },
        {
          "address": "0xd63070114470f685b75b74d60eec7c1113d33a3d",
          "topics": [
            "0xddf252ad1be2c89b69c2b068fc378daa952ba7f163c4a11628f55a4df523b3ef",
            "0x0000000000000000000000000000000000000000000000000000000000000000",
            "0x0000000000000000000000006ac25f85a8fa9a7d77b3f2165103fc0f09642b6a"
          ],
          "data": "0x00000000000000000000000000000000000000000000000278a13350d6fa17d7",
          "blockHash": "0x20168934f4a3e315e9d2107e7039d9a233c515f5859020664e799f3521862151",
          "blockNumber": "0x13c0367",
          "blockTimestamp": "0x66de65ab",
          "transactionHash": "0x99849b97cd8af7eef2e81fb69523da9649c8c9cc359403867dd5b00ec4ac1c2f",
          "transactionIndex": "0xcb",
          "logIndex": "0x211",
          "removed": false
        },
        {
          "address": "0xd63070114470f685b75b74d60eec7c1113d33a3d",
          "topics": [
            "0xdcbc1c05240f31ff3ad067ef1ee35ce4997762752e3a095284754544f4c709d7",
            "0x0000000000000000000000006ac25f85a8fa9a7d77b3f2165103fc0f09642b6a",
            "0x0000000000000000000000006ac25f85a8fa9a7d77b3f2165103fc0f09642b6a"
          ],
          "data": "0x0000000000000000000000000000000000000000000000000000000002bfe2b000000000000000000000000000000000000000000000000278a13350d6fa17d7",
          "blockHash": "0x20168934f4a3e315e9d2107e7039d9a233c515f5859020664e799f3521862151",
          "blockNumber": "0x13c0367",
          "blockTimestamp": "0x66de65ab",
          "transactionHash": "0x99849b97cd8af7eef2e81fb69523da9649c8c9cc359403867dd5b00ec4ac1c2f",
          "transactionIndex": "0xcb",
          "logIndex": "0x212",
          "removed": false
        },
        {
          "address": "0x870ac11d48b15db9a138cf899d20f13f79ba00bc",
          "topics": [
            "0x7120161a7b3d31251e01294ab351ef15a41b91659a36032e4641bb89b121e321",
            "0xb48bb53f0f2690c71e8813f2dc7ed6fca9ac4b0ace3faa37b4a8e5ece38fa1a2"
          ],
          "data": "0x00000000000000000000000000000000000000000000000000000000a00e92a200000000000000000000000000000000000000000000000000000000a97d6b03",
          "blockHash": "0x20168934f4a3e315e9d2107e7039d9a233c515f5859020664e799f3521862151",
          "blockNumber": "0x13c0367",
          "blockTimestamp": "0x66de65ab",
          "transactionHash": "0x99849b97cd8af7eef2e81fb69523da9649c8c9cc359403867dd5b00ec4ac1c2f",
          "transactionIndex": "0xcb",
          "logIndex": "0x213",
          "removed": false
        },
        {
          "address": "0xbbbbbbbbbb9cc5e90e3b3af64bdaf62c37eeffcb",
          "topics": [
            "0x9d9bd501d0657d7dfe415f779a620a62b78bc508ddc0891fbbd8b7ac0f8fce87",
            "0xb48bb53f0f2690c71e8813f2dc7ed6fca9ac4b0ace3faa37b4a8e5ece38fa1a2"
          ],
          "data": "0x00000000000000000000000000000000000000000000000000000000a00e92a20000000000000000000000000000000000000000000000000000000013eaf09c0000000000000000000000000000000000000000000000000000000000000000",
          "blockHash": "0x20168934f4a3e315e9d2107e7039d9a233c515f5859020664e799f3521862151",
          "blockNumber": "0x13c0367",
          "blockTimestamp": "0x66de65ab",
          "transactionHash": "0x99849b97cd8af7eef2e81fb69523da9649c8c9cc359403867dd5b00ec4ac1c2f",
          "transactionIndex": "0xcb",
          "logIndex": "0x214",
          "removed": false
        },
        {
          "address": "0x870ac11d48b15db9a138cf899d20f13f79ba00bc",
          "topics": [
            "0x7120161a7b3d31251e01294ab351ef15a41b91659a36032e4641bb89b121e321",
            "0x864c9b82eb066ae2c038ba763dfc0221001e62fc40925530056349633eb0a259"
          ],
          "data": "0x00000000000000000000000000000000000000000000000000000000680482f1000000000000000000000000000000000000000000000000000000008110cee8",
          "blockHash": "0x20168934f4a3e315e9d2107e7039d9a233c515f5859020664e799f3521862151",
          "blockNumber": "0x13c0367",
          "blockTimestamp": "0x66de65ab",
          "transactionHash": "0x99849b97cd8af7eef2e81fb69523da9649c8c9cc359403867dd5b00ec4ac1c2f",
          "transactionIndex": "0xcb",
          "logIndex": "0x215",
          "removed": false
        },
        {
          "address": "0xbbbbbbbbbb9cc5e90e3b3af64bdaf62c37eeffcb",
          "topics": [
            "0x9d9bd501d0657d7dfe415f779a620a62b78bc508ddc0891fbbd8b7ac0f8fce87",
            "0x864c9b82eb066ae2c038ba763dfc0221001e62fc40925530056349633eb0a259"
          ],
          "data": "0x00000000000000000000000000000000000000000000000000000000680482f10000000000000000000000000000000000000000000000000000000009afa4150000000000000000000000000000000000000000000000000000000000000000",
          "blockHash": "0x20168934f4a3e315e9d2107e7039d9a233c515f5859020664e799f3521862151",
          "blockNumber": "0x13c0367",
          "blockTimestamp": "0x66de65ab",
          "transactionHash": "0x99849b97cd8af7eef2e81fb69523da9649c8c9cc359403867dd5b00ec4ac1c2f",
          "transactionIndex": "0xcb",
          "logIndex": "0x216",
          "removed": false
        },
        {
          "address": "0xbbbbbbbbbb9cc5e90e3b3af64bdaf62c37eeffcb",
          "topics": [
            "0xedf8870433c83823eb071d3df1caa8d008f12f6440918c20d75a3602cda30fe0",
            "0x54efdee08e272e929034a8f26f7ca34b1ebe364b275391169b28c6d7db24dbc8",
            "0x000000000000000000000000d63070114470f685b75b74d60eec7c1113d33a3d",
            "0x000000000000000000000000d63070114470f685b75b74d60eec7c1113d33a3d"
          ],
          "data": "0x0000000000000000000000000000000000000000000000000000000002bfe2b0000000000000000000000000000000000000000000000000000029f470ba0c00",
          "blockHash": "0x20168934f4a3e315e9d2107e7039d9a233c515f5859020664e799f3521862151",
          "blockNumber": "0x13c0367",
          "blockTimestamp": "0x66de65ab",
          "transactionHash": "0x99849b97cd8af7eef2e81fb69523da9649c8c9cc359403867dd5b00ec4ac1c2f",
          "transactionIndex": "0xcb",
          "logIndex": "0x217",
          "removed": false
        },
        {
          "address": "0xa0b86991c6218b36c1d19d4a2e9eb0ce3606eb48",
          "topics": [
            "0xddf252ad1be2c89b69c2b068fc378daa952ba7f163c4a11628f55a4df523b3ef",
            "0x000000000000000000000000d63070114470f685b75b74d60eec7c1113d33a3d",
            "0x000000000000000000000000bbbbbbbbbb9cc5e90e3b3af64bdaf62c37eeffcb"
          ],
          "data": "0x0000000000000000000000000000000000000000000000000000000002bfe2b0",
          "blockHash": "0x20168934f4a3e315e9d2107e7039d9a233c515f5859020664e799f3521862151",
          "blockNumber": "0x13c0367",
          "blockTimestamp": "0x66de65ab",
          "transactionHash": "0x99849b97cd8af7eef2e81fb69523da9649c8c9cc359403867dd5b00ec4ac1c2f",
          "transactionIndex": "0xcb",
          "logIndex": "0x218",
          "removed": false
        },
        {
          "address": "0xd63070114470f685b75b74d60eec7c1113d33a3d",
          "topics": [
            "0x15c027cc4fd826d986cad358803439f7326d3aa4ed969ff90dbee4bc150f68e9"
          ],
          "data": "0x00000000000000000000000000000000000000000000000000002ee133f61e9f",
          "blockHash": "0x20168934f4a3e315e9d2107e7039d9a233c515f5859020664e799f3521862151",
          "blockNumber": "0x13c0367",
          "blockTimestamp": "0x66de65ab",
          "transactionHash": "0x99849b97cd8af7eef2e81fb69523da9649c8c9cc359403867dd5b00ec4ac1c2f",
          "transactionIndex": "0xcb",
          "logIndex": "0x219",
          "removed": false
        },
        {
          "address": "0x6ac25f85a8fa9a7d77b3f2165103fc0f09642b6a",
          "topics": [
            "0x6562511fab96c9d61fcca699b812b2d8084548a3ccc34b9e7ba471c913c5b48b"
          ],
          "data": "0x0000000000000000000000000000000000000000000000000000000002bfe2b0",
          "blockHash": "0x20168934f4a3e315e9d2107e7039d9a233c515f5859020664e799f3521862151",
          "blockNumber": "0x13c0367",
          "blockTimestamp": "0x66de65ab",
          "transactionHash": "0x99849b97cd8af7eef2e81fb69523da9649c8c9cc359403867dd5b00ec4ac1c2f",
          "transactionIndex": "0xcb",
          "logIndex": "0x21a",
          "removed": false
        },
        {
          "address": "0x09e52aa36484c20288d9c148458ea4da991118af",
          "topics": [
            "0xad74235a8caeca33a6612cb543004e88ca3a8177f115e3d3269fa1353397258e"
          ],
          "data": "0x0000000000000000000000006ac25f85a8fa9a7d77b3f2165103fc0f09642b6a0000000000000000000000000000000000000000000000000000000002bfe2b0",
          "blockHash": "0x20168934f4a3e315e9d2107e7039d9a233c515f5859020664e799f3521862151",
          "blockNumber": "0x13c0367",
          "blockTimestamp": "0x66de65ab",
          "transactionHash": "0x99849b97cd8af7eef2e81fb69523da9649c8c9cc359403867dd5b00ec4ac1c2f",
          "transactionIndex": "0xcb",
          "logIndex": "0x21b",
          "removed": false
        }
      ],
      "logsBloom": "0x00000000000000000000000000004080000000000000000000000000000000001000400000000000000000000000020000000800000000010000000020a44000000000400010100008000008a00000000000004800200000000000080000002000000000020000008000000000000801000000000004000000000010000800000008400000000008100000000000000000000000010000004020000000000400a200000000a0200000802000000000000000102004008000000000000000000821000002000000000001000020100000000000000008000000000000040020400010000011000000000000200021000009000000000000001000000040000000",
      "type": "0x0",
      "transactionHash": "0x99849b97cd8af7eef2e81fb69523da9649c8c9cc359403867dd5b00ec4ac1c2f",
      "transactionIndex": "0xcb",
      "blockHash": "0x20168934f4a3e315e9d2107e7039d9a233c515f5859020664e799f3521862151",
      "blockNumber": "0x13c0367",
      "gasUsed": "0x72678",
      "effectiveGasPrice": "0x4d450840",
      "from": "0xc49b5e5b9da66b9126c1a62e9761e6b2147de3e1",
      "to": "0x09e52aa36484c20288d9c148458ea4da991118af",
      "contractAddress": null
    }
  ],
  "libraries": [],
  "pending": [],
  "returns": {},
  "timestamp": 1725851056,
  "chain": 1,
  "commit": "fa4ea12"
}