{
  "transactions": [
    {
      "hash": "0x4982aa8ba4e6bd4a181ca3fcc668cbb7e02aa5e02432335a9fea0d0e387500fe",
      "transactionType": "CALL",
      "contractName": null,
      "contractAddress": "0xa0b86991c6218b36c1d19d4a2e9eb0ce3606eb48",
      "function": "transfer(address,uint256)",
      "arguments": [
        "0x09E52AA36484c20288D9C148458Ea4DA991118Af",
        "225613197"
      ],
      "transaction": {
        "from": "0xc49b5e5b9da66b9126c1a62e9761e6b2147de3e1",
        "to": "0xa0b86991c6218b36c1d19d4a2e9eb0ce3606eb48",
        "gas": "0x13606",
        "value": "0x0",
        "input": "0xa9059cbb0000000000000000000000007c5f91e90f4224fd199a5f1b11dc88f1cd444230000000000000000000000000000000000000000000000000000000000d72958d",
        "nonce": "0x1e",
        "chainId": "0x1"
      },
      "additionalContracts": [],
      "isFixedGasLimit": false
    },
    {
      "hash": "0x5ee6b2e5a557dc11cedb63f423e069ace94a55bfa3dbaace3955974b462b76f8",
      "transactionType": "CALL",
      "contractName": null,
      "contractAddress": "0x7c5f91e90f4224fd199a5f1b11dc88f1cd444230",
      "function": "invest(address,uint256)",
      "arguments": [
        "0x6ac25F85a8fA9a7D77B3f2165103Fc0F09642B6A",
        "225613197"
      ],
      "transaction": {
        "from": "0xc49b5e5b9da66b9126c1a62e9761e6b2147de3e1",
        "to": "0x7c5f91e90f4224fd199a5f1b11dc88f1cd444230",
        "gas": "0x9e055",
        "value": "0x0",
        "input": "0xb9b8c2460000000000000000000000000a957f986d0944a2bb0e7e47abee14e5b059f979000000000000000000000000000000000000000000000000000000000d72958d",
        "nonce": "0x1f",
        "chainId": "0x1"
      },
      "additionalContracts": [],
      "isFixedGasLimit": false
    }
  ],
  "receipts": [
    {
      "status": "0x1",
      "cumulativeGasUsed": "0x908160",
      "logs": [
        {
          "address": "0xa0b86991c6218b36c1d19d4a2e9eb0ce3606eb48",
          "topics": [
            "0xddf252ad1be2c89b69c2b068fc378daa952ba7f163c4a11628f55a4df523b3ef",
            "0x000000000000000000000000c49b5e5b9da66b9126c1a62e9761e6b2147de3e1",
            "0x0000000000000000000000007c5f91e90f4224fd199a5f1b11dc88f1cd444230"
          ],
          "data": "0x000000000000000000000000000000000000000000000000000000000d72958d",
          "blockHash": "0x734e840ccc0bdc105bcd66c8c1e5400273644c6c474106c8f7ceaab4fd067dc9",
          "blockNumber": "0x13bf77a",
          "blockTimestamp": "0x66ddd59f",
          "transactionHash": "0x4982aa8ba4e6bd4a181ca3fcc668cbb7e02aa5e02432335a9fea0d0e387500fe",
          "transactionIndex": "0x88",
          "logIndex": "0xfe",
          "removed": false
        }
      ],
      "logsBloom": "0x00008000000000000000000000000000000000000000000000000000000000000000000000000000000000000000000000000000000000000000020000000000000000000000000008000008000000000000000000080000000000000000000000000000000000000000000000000000000000000000000000000010000000000000000000000000000008000000000000000000010000000000000000000000000000000000200000000000000000000000000000002000000000004000000000000002000000000000000000000000000000000000000000000000000000000000000000000000000000000000000000000000000000000000000000000000",
      "type": "0x0",
      "transactionHash": "0x4982aa8ba4e6bd4a181ca3fcc668cbb7e02aa5e02432335a9fea0d0e387500fe",
      "transactionIndex": "0x88",
      "blockHash": "0x734e840ccc0bdc105bcd66c8c1e5400273644c6c474106c8f7ceaab4fd067dc9",
      "blockNumber": "0x13bf77a",
      "gasUsed": "0xe074",
      "effectiveGasPrice": "0x59182c03",
      "from": "0xc49b5e5b9da66b9126c1a62e9761e6b2147de3e1",
      "to": "0xa0b86991c6218b36c1d19d4a2e9eb0ce3606eb48",
      "contractAddress": null
    },
    {
      "status": "0x1",
      "cumulativeGasUsed": "0x98434b",
      "logs": [
        {
          "address": "0xa0b86991c6218b36c1d19d4a2e9eb0ce3606eb48",
          "topics": [
            "0xddf252ad1be2c89b69c2b068fc378daa952ba7f163c4a11628f55a4df523b3ef",
            "0x0000000000000000000000007c5f91e90f4224fd199a5f1b11dc88f1cd444230",
            "0x0000000000000000000000000a957f986d0944a2bb0e7e47abee14e5b059f979"
          ],
          "data": "0x000000000000000000000000000000000000000000000000000000000d72958d",
          "blockHash": "0x734e840ccc0bdc105bcd66c8c1e5400273644c6c474106c8f7ceaab4fd067dc9",
          "blockNumber": "0x13bf77a",
          "blockTimestamp": "0x66ddd59f",
          "transactionHash": "0x5ee6b2e5a557dc11cedb63f423e069ace94a55bfa3dbaace3955974b462b76f8",
          "transactionIndex": "0x8a",
          "logIndex": "0x100",
          "removed": false
        },
        {
          "address": "0xa0b86991c6218b36c1d19d4a2e9eb0ce3606eb48",
          "topics": [
            "0x8c5be1e5ebec7d5bd14f71427d1e84f3dd0314c0f7b2291e5b200ac8c7c3b925",
            "0x0000000000000000000000000a957f986d0944a2bb0e7e47abee14e5b059f979",
            "0x000000000000000000000000d63070114470f685b75b74d60eec7c1113d33a3d"
          ],
          "data": "0x000000000000000000000000000000000000000000000000000000000d72958d",
          "blockHash": "0x734e840ccc0bdc105bcd66c8c1e5400273644c6c474106c8f7ceaab4fd067dc9",
          "blockNumber": "0x13bf77a",
          "blockTimestamp": "0x66ddd59f",
          "transactionHash": "0x5ee6b2e5a557dc11cedb63f423e069ace94a55bfa3dbaace3955974b462b76f8",
          "transactionIndex": "0x8a",
          "logIndex": "0x101",
          "removed": false
        },
        {
          "address": "0xd63070114470f685b75b74d60eec7c1113d33a3d",
          "topics": [
            "0xddf252ad1be2c89b69c2b068fc378daa952ba7f163c4a11628f55a4df523b3ef",
            "0x0000000000000000000000000000000000000000000000000000000000000000",
            "0x00000000000000000000000039cba2e8b93faacd9266821fb9320596e4aad410"
          ],
          "data": "0x00000000000000000000000000000000000000000000000071d265a5eee874b0",
          "blockHash": "0x734e840ccc0bdc105bcd66c8c1e5400273644c6c474106c8f7ceaab4fd067dc9",
          "blockNumber": "0x13bf77a",
          "blockTimestamp": "0x66ddd59f",
          "transactionHash": "0x5ee6b2e5a557dc11cedb63f423e069ace94a55bfa3dbaace3955974b462b76f8",
          "transactionIndex": "0x8a",
          "logIndex": "0x102",
          "removed": false
        },
        {
          "address": "0xd63070114470f685b75b74d60eec7c1113d33a3d",
          "topics": [
            "0xf66f28b40975dbb933913542c7e6a0f50a1d0f20aa74ea6e0efe65ab616323ec"
          ],
          "data": "0x00000000000000000000000000000000000000000000000000002f0719e7c33e00000000000000000000000000000000000000000000000071d265a5eee874b0",
          "blockHash": "0x734e840ccc0bdc105bcd66c8c1e5400273644c6c474106c8f7ceaab4fd067dc9",
          "blockNumber": "0x13bf77a",
          "blockTimestamp": "0x66ddd59f",
          "transactionHash": "0x5ee6b2e5a557dc11cedb63f423e069ace94a55bfa3dbaace3955974b462b76f8",
          "transactionIndex": "0x8a",
          "logIndex": "0x103",
          "removed": false
        },
        {
          "address": "0xa0b86991c6218b36c1d19d4a2e9eb0ce3606eb48",
          "topics": [
            "0xddf252ad1be2c89b69c2b068fc378daa952ba7f163c4a11628f55a4df523b3ef",
            "0x0000000000000000000000000a957f986d0944a2bb0e7e47abee14e5b059f979",
            "0x000000000000000000000000d63070114470f685b75b74d60eec7c1113d33a3d"
          ],
          "data": "0x000000000000000000000000000000000000000000000000000000000d72958d",
          "blockHash": "0x734e840ccc0bdc105bcd66c8c1e5400273644c6c474106c8f7ceaab4fd067dc9",
          "blockNumber": "0x13bf77a",
          "blockTimestamp": "0x66ddd59f",
          "transactionHash": "0x5ee6b2e5a557dc11cedb63f423e069ace94a55bfa3dbaace3955974b462b76f8",
          "transactionIndex": "0x8a",
          "logIndex": "0x104",
          "removed": false
        },
        {
          "address": "0xd63070114470f685b75b74d60eec7c1113d33a3d",
          "topics": [
            "0xddf252ad1be2c89b69c2b068fc378daa952ba7f163c4a11628f55a4df523b3ef",
            "0x0000000000000000000000000000000000000000000000000000000000000000",
            "0x0000000000000000000000000a957f986d0944a2bb0e7e47abee14e5b059f979"
          ],
          "data": "0x00000000000000000000000000000000000000000000000c1641dc8e9da13bed",
          "blockHash": "0x734e840ccc0bdc105bcd66c8c1e5400273644c6c474106c8f7ceaab4fd067dc9",
          "blockNumber": "0x13bf77a",
          "blockTimestamp": "0x66ddd59f",
          "transactionHash": "0x5ee6b2e5a557dc11cedb63f423e069ace94a55bfa3dbaace3955974b462b76f8",
          "transactionIndex": "0x8a",
          "logIndex": "0x105",
          "removed": false
        },
        {
          "address": "0xd63070114470f685b75b74d60eec7c1113d33a3d",
          "topics": [
            "0xdcbc1c05240f31ff3ad067ef1ee35ce4997762752e3a095284754544f4c709d7",
            "0x0000000000000000000000000a957f986d0944a2bb0e7e47abee14e5b059f979",
            "0x0000000000000000000000000a957f986d0944a2bb0e7e47abee14e5b059f979"
          ],
          "data": "0x000000000000000000000000000000000000000000000000000000000d72958d00000000000000000000000000000000000000000000000c1641dc8e9da13bed",
          "blockHash": "0x734e840ccc0bdc105bcd66c8c1e5400273644c6c474106c8f7ceaab4fd067dc9",
          "blockNumber": "0x13bf77a",
          "blockTimestamp": "0x66ddd59f",
          "transactionHash": "0x5ee6b2e5a557dc11cedb63f423e069ace94a55bfa3dbaace3955974b462b76f8",
          "transactionIndex": "0x8a",
          "logIndex": "0x106",
          "removed": false
        },
        {
          "address": "0x870ac11d48b15db9a138cf899d20f13f79ba00bc",
          "topics": [
            "0x7120161a7b3d31251e01294ab351ef15a41b91659a36032e4641bb89b121e321",
            "0xb48bb53f0f2690c71e8813f2dc7ed6fca9ac4b0ace3faa37b4a8e5ece38fa1a2"
          ],
          "data": "0x00000000000000000000000000000000000000000000000000000000a0b7a08a00000000000000000000000000000000000000000000000000000000aa3b1468",
          "blockHash": "0x734e840ccc0bdc105bcd66c8c1e5400273644c6c474106c8f7ceaab4fd067dc9",
          "blockNumber": "0x13bf77a",
          "blockTimestamp": "0x66ddd59f",
          "transactionHash": "0x5ee6b2e5a557dc11cedb63f423e069ace94a55bfa3dbaace3955974b462b76f8",
          "transactionIndex": "0x8a",
          "logIndex": "0x107",
          "removed": false
        },
        {
          "address": "0xbbbbbbbbbb9cc5e90e3b3af64bdaf62c37eeffcb",
          "topics": [
            "0x9d9bd501d0657d7dfe415f779a620a62b78bc508ddc0891fbbd8b7ac0f8fce87",
            "0xb48bb53f0f2690c71e8813f2dc7ed6fca9ac4b0ace3faa37b4a8e5ece38fa1a2"
          ],
          "data": "0x00000000000000000000000000000000000000000000000000000000a0b7a08a00000000000000000000000000000000000000000000000000000000048231540000000000000000000000000000000000000000000000000000000000000000",
          "blockHash": "0x734e840ccc0bdc105bcd66c8c1e5400273644c6c474106c8f7ceaab4fd067dc9",
          "blockNumber": "0x13bf77a",
          "blockTimestamp": "0x66ddd59f",
          "transactionHash": "0x5ee6b2e5a557dc11cedb63f423e069ace94a55bfa3dbaace3955974b462b76f8",
          "transactionIndex": "0x8a",
          "logIndex": "0x108",
          "removed": false
        },
        {
          "address": "0x870ac11d48b15db9a138cf899d20f13f79ba00bc",
          "topics": [
            "0x7120161a7b3d31251e01294ab351ef15a41b91659a36032e4641bb89b121e321",
            "0x864c9b82eb066ae2c038ba763dfc0221001e62fc40925530056349633eb0a259"
          ],
          "data": "0x00000000000000000000000000000000000000000000000000000000693c921800000000000000000000000000000000000000000000000000000000830f78eb",
          "blockHash": "0x734e840ccc0bdc105bcd66c8c1e5400273644c6c474106c8f7ceaab4fd067dc9",
          "blockNumber": "0x13bf77a",
          "blockTimestamp": "0x66ddd59f",
          "transactionHash": "0x5ee6b2e5a557dc11cedb63f423e069ace94a55bfa3dbaace3955974b462b76f8",
          "transactionIndex": "0x8a",
          "logIndex": "0x109",
          "removed": false
        },
        {
          "address": "0xbbbbbbbbbb9cc5e90e3b3af64bdaf62c37eeffcb",
          "topics": [
            "0x9d9bd501d0657d7dfe415f779a620a62b78bc508ddc0891fbbd8b7ac0f8fce87",
            "0x864c9b82eb066ae2c038ba763dfc0221001e62fc40925530056349633eb0a259"
          ],
          "data": "0x00000000000000000000000000000000000000000000000000000000693c92180000000000000000000000000000000000000000000000000000000002333c200000000000000000000000000000000000000000000000000000000000000000",
          "blockHash": "0x734e840ccc0bdc105bcd66c8c1e5400273644c6c474106c8f7ceaab4fd067dc9",
          "blockNumber": "0x13bf77a",
          "blockTimestamp": "0x66ddd59f",
          "transactionHash": "0x5ee6b2e5a557dc11cedb63f423e069ace94a55bfa3dbaace3955974b462b76f8",
          "transactionIndex": "0x8a",
          "logIndex": "0x10a",
          "removed": false
        },
        {
          "address": "0xbbbbbbbbbb9cc5e90e3b3af64bdaf62c37eeffcb",
          "topics": [
            "0xedf8870433c83823eb071d3df1caa8d008f12f6440918c20d75a3602cda30fe0",
            "0x54efdee08e272e929034a8f26f7ca34b1ebe364b275391169b28c6d7db24dbc8",
            "0x000000000000000000000000d63070114470f685b75b74d60eec7c1113d33a3d",
            "0x000000000000000000000000d63070114470f685b75b74d60eec7c1113d33a3d"
          ],
          "data": "0x000000000000000000000000000000000000000000000000000000000d72958d0000000000000000000000000000000000000000000000000000cd31aa76bd40",
          "blockHash": "0x734e840ccc0bdc105bcd66c8c1e5400273644c6c474106c8f7ceaab4fd067dc9",
          "blockNumber": "0x13bf77a",
          "blockTimestamp": "0x66ddd59f",
          "transactionHash": "0x5ee6b2e5a557dc11cedb63f423e069ace94a55bfa3dbaace3955974b462b76f8",
          "transactionIndex": "0x8a",
          "logIndex": "0x10b",
          "removed": false
        },
        {
          "address": "0xa0b86991c6218b36c1d19d4a2e9eb0ce3606eb48",
          "topics": [
            "0xddf252ad1be2c89b69c2b068fc378daa952ba7f163c4a11628f55a4df523b3ef",
            "0x000000000000000000000000d63070114470f685b75b74d60eec7c1113d33a3d",
            "0x000000000000000000000000bbbbbbbbbb9cc5e90e3b3af64bdaf62c37eeffcb"
          ],
          "data": "0x000000000000000000000000000000000000000000000000000000000d72958d",
          "blockHash": "0x734e840ccc0bdc105bcd66c8c1e5400273644c6c474106c8f7ceaab4fd067dc9",
          "blockNumber": "0x13bf77a",
          "blockTimestamp": "0x66ddd59f",
          "transactionHash": "0x5ee6b2e5a557dc11cedb63f423e069ace94a55bfa3dbaace3955974b462b76f8",
          "transactionIndex": "0x8a",
          "logIndex": "0x10c",
          "removed": false
        },
        {
          "address": "0xd63070114470f685b75b74d60eec7c1113d33a3d",
          "topics": [
            "0x15c027cc4fd826d986cad358803439f7326d3aa4ed969ff90dbee4bc150f68e9"
          ],
          "data": "0x00000000000000000000000000000000000000000000000000002f07275a58cb",
          "blockHash": "0x734e840ccc0bdc105bcd66c8c1e5400273644c6c474106c8f7ceaab4fd067dc9",
          "blockNumber": "0x13bf77a",
          "blockTimestamp": "0x66ddd59f",
          "transactionHash": "0x5ee6b2e5a557dc11cedb63f423e069ace94a55bfa3dbaace3955974b462b76f8",
          "transactionIndex": "0x8a",
          "logIndex": "0x10d",
          "removed": false
        },
        {
          "address": "0x0a957f986d0944a2bb0e7e47abee14e5b059f979",
          "topics": [
            "0x6562511fab96c9d61fcca699b812b2d8084548a3ccc34b9e7ba471c913c5b48b"
          ],
          "data": "0x000000000000000000000000000000000000000000000000000000000d72958d",
          "blockHash": "0x734e840ccc0bdc105bcd66c8c1e5400273644c6c474106c8f7ceaab4fd067dc9",
          "blockNumber": "0x13bf77a",
          "blockTimestamp": "0x66ddd59f",
          "transactionHash": "0x5ee6b2e5a557dc11cedb63f423e069ace94a55bfa3dbaace3955974b462b76f8",
          "transactionIndex": "0x8a",
          "logIndex": "0x10e",
          "removed": false
        },
        {
          "address": "0x7c5f91e90f4224fd199a5f1b11dc88f1cd444230",
          "topics": [
            "0xad74235a8caeca33a6612cb543004e88ca3a8177f115e3d3269fa1353397258e"
          ],
          "data": "0x0000000000000000000000000a957f986d0944a2bb0e7e47abee14e5b059f979000000000000000000000000000000000000000000000000000000000d72958d",
          "blockHash": "0x734e840ccc0bdc105bcd66c8c1e5400273644c6c474106c8f7ceaab4fd067dc9",
          "blockNumber": "0x13bf77a",
          "blockTimestamp": "0x66ddd59f",
          "transactionHash": "0x5ee6b2e5a557dc11cedb63f423e069ace94a55bfa3dbaace3955974b462b76f8",
          "transactionIndex": "0x8a",
          "logIndex": "0x10f",
          "removed": false
        }
      ],
      "logsBloom": "0x00080002000000800000000000000080000000000000000000000000000000001000400000000000000000000040020000000000000000010000030020a44000000000400010100008000008a0000008000000480020000000000008000100200000000002000000800000000000080100000000000400000000001000000000000840000000000810000000000000000000000001000000402000000000040022000000002020000088000000000000000010000400a000000000004000010821000002000000000001000000000000000000000008000000000000040020400010000011000000000000200021000009000000000000000000000040000000",
      "type": "0x0",
      "transactionHash": "0x5ee6b2e5a557dc11cedb63f423e069ace94a55bfa3dbaace3955974b462b76f8",
      "transactionIndex": "0x8a",
      "blockHash": "0x734e840ccc0bdc105bcd66c8c1e5400273644c6c474106c8f7ceaab4fd067dc9",
      "blockNumber": "0x13bf77a",
      "gasUsed": "0x72678",
      "effectiveGasPrice": "0x59182c03",
      "from": "0xc49b5e5b9da66b9126c1a62e9761e6b2147de3e1",
      "to": "0x7c5f91e90f4224fd199a5f1b11dc88f1cd444230",
      "contractAddress": null
    }
  ],
  "libraries": [],
  "pending": [],
  "returns": {},
  "timestamp": 1725814182,
  "chain": 1,
  "commit": "fa4ea12"
}