{
  "transactions": [
    {
      "hash": "0x0cbd222168ebdb8f7f11785957cebb4b2c9325aaa215293d6146454bcd3e362c",
      "transactionType": "CALL",
      "contractName": null,
      "contractAddress": "0xa3da77204c6656c83596d97e5c60b90d630f1104",
      "function": "redeem(address,uint256)",
      "arguments": [
        "0x6ac25F85a8fA9a7D77B3f2165103Fc0F09642B6A",
        "46109841"
      ],
      "transaction": {
        "from": "0xc49b5e5b9da66b9126c1a62e9761e6b2147de3e1",
        "to": "0xa3da77204c6656c83596d97e5c60b90d630f1104",
        "gas": "0x93679",
        "value": "0x0",
        "input": "0x1e9a69500000000000000000000000001894259b98bdd9ed6c202749d2c0805b66b03c7f0000000000000000000000000000000000000000000000000000000002bf9491",
        "nonce": "0x36",
        "chainId": "0x1"
      },
      "additionalContracts": [],
      "isFixedGasLimit": false
    },
    {
      "hash": "0x7178eb27a1cbc7f876ae03a19d93a2724ef273fcf8806d53b35ea3b48bc379ea",
      "transactionType": "CALL",
      "contractName": null,
      "contractAddress": "0xa3da77204c6656c83596d97e5c60b90d630f1104",
      "function": "withdrawFromStrategy(address,uint256)",
      "arguments": [
        "0x6ac25F85a8fA9a7D77B3f2165103Fc0F09642B6A",
        "46109840"
      ],
      "transaction": {
        "from": "0xc49b5e5b9da66b9126c1a62e9761e6b2147de3e1",
        "to": "0xa3da77204c6656c83596d97e5c60b90d630f1104",
        "gas": "0x19e03",
        "value": "0x0",
        "input": "0xb53d09580000000000000000000000001894259b98bdd9ed6c202749d2c0805b66b03c7f0000000000000000000000000000000000000000000000000000000002bf9490",
        "nonce": "0x37",
        "chainId": "0x1"
      },
      "additionalContracts": [],
      "isFixedGasLimit": false
    },
    {
      "hash": "0xdc2e5e4cd28b2150db59faea1942b52e498894ebc1e3fde4e1e65be28130f1f0",
      "transactionType": "CALL",
      "contractName": null,
      "contractAddress": "0xa3da77204c6656c83596d97e5c60b90d630f1104",
      "function": "withdrawToCEX(address,uint256,address)",
      "arguments": [
        "0xA0b86991c6218b36c1d19D4a2e9Eb0cE3606eB48",
        "46109840",
        "0x790ac11183ddE23163b307E3F7440F2460526957"
      ],
      "transaction": {
        "from": "0xc49b5e5b9da66b9126c1a62e9761e6b2147de3e1",
        "to": "0xa3da77204c6656c83596d97e5c60b90d630f1104",
        "gas": "0x12602",
        "value": "0x0",
        "input": "0xd9bb89a8000000000000000000000000a0b86991c6218b36c1d19d4a2e9eb0ce3606eb480000000000000000000000000000000000000000000000000000000002bf9490000000000000000000000000790ac11183dde23163b307e3f7440f2460526957",
        "nonce": "0x38",
        "chainId": "0x1"
      },
      "additionalContracts": [],
      "isFixedGasLimit": false
    }
  ],
  "receipts": [
    {
      "status": "0x1",
      "cumulativeGasUsed": "0x141c43d",
      "logs": [
        {
          "address": "0xd63070114470f685b75b74d60eec7c1113d33a3d",
          "topics": [
            "0xddf252ad1be2c89b69c2b068fc378daa952ba7f163c4a11628f55a4df523b3ef",
            "0x0000000000000000000000000000000000000000000000000000000000000000",
            "0x00000000000000000000000039cba2e8b93faacd9266821fb9320596e4aad410"
          ],
          "data": "0x0000000000000000000000000000000000000000000000004fa1ae40feea5994",
          "blockHash": "0xd2ea65de209bcb0e5de8e4f20ac569013a793e22a5c1f8a9cdaddf26dbef51ad",
          "blockNumber": "0x13c01ee",
          "blockTimestamp": "0x66de53ff",
          "transactionHash": "0x0cbd222168ebdb8f7f11785957cebb4b2c9325aaa215293d6146454bcd3e362c",
          "transactionIndex": "0xbe",
          "logIndex": "0x278",
          "removed": false
        },
        {
          "address": "0xd63070114470f685b75b74d60eec7c1113d33a3d",
          "topics": [
            "0xf66f28b40975dbb933913542c7e6a0f50a1d0f20aa74ea6e0efe65ab616323ec"
          ],
          "data": "0x00000000000000000000000000000000000000000000000000002f1604487c9b0000000000000000000000000000000000000000000000004fa1ae40feea5994",
          "blockHash": "0xd2ea65de209bcb0e5de8e4f20ac569013a793e22a5c1f8a9cdaddf26dbef51ad",
          "blockNumber": "0x13c01ee",
          "blockTimestamp": "0x66de53ff",
          "transactionHash": "0x0cbd222168ebdb8f7f11785957cebb4b2c9325aaa215293d6146454bcd3e362c",
          "transactionIndex": "0xbe",
          "logIndex": "0x279",
          "removed": false
        },
        {
          "address": "0xd63070114470f685b75b74d60eec7c1113d33a3d",
          "topics": [
            "0x15c027cc4fd826d986cad358803439f7326d3aa4ed969ff90dbee4bc150f68e9"
          ],
          "data": "0x00000000000000000000000000000000000000000000000000002f160188e80b",
          "blockHash": "0xd2ea65de209bcb0e5de8e4f20ac569013a793e22a5c1f8a9cdaddf26dbef51ad",
          "blockNumber": "0x13c01ee",
          "blockTimestamp": "0x66de53ff",
          "transactionHash": "0x0cbd222168ebdb8f7f11785957cebb4b2c9325aaa215293d6146454bcd3e362c",
          "transactionIndex": "0xbe",
          "logIndex": "0x27a",
          "removed": false
        },
        {
          "address": "0xbbbbbbbbbb9cc5e90e3b3af64bdaf62c37eeffcb",
          "topics": [
            "0xa56fc0ad5702ec05ce63666221f796fb62437c32db1aa1aa075fc6484cf58fbf",
            "0x54efdee08e272e929034a8f26f7ca34b1ebe364b275391169b28c6d7db24dbc8",
            "0x000000000000000000000000d63070114470f685b75b74d60eec7c1113d33a3d",
            "0x000000000000000000000000d63070114470f685b75b74d60eec7c1113d33a3d"
          ],
          "data": "0x000000000000000000000000d63070114470f685b75b74d60eec7c1113d33a3d0000000000000000000000000000000000000000000000000000000002bf9490000000000000000000000000000000000000000000000000000029efc8a24400",
          "blockHash": "0xd2ea65de209bcb0e5de8e4f20ac569013a793e22a5c1f8a9cdaddf26dbef51ad",
          "blockNumber": "0x13c01ee",
          "blockTimestamp": "0x66de53ff",
          "transactionHash": "0x0cbd222168ebdb8f7f11785957cebb4b2c9325aaa215293d6146454bcd3e362c",
          "transactionIndex": "0xbe",
          "logIndex": "0x27b",
          "removed": false
        },
        {
          "address": "0xa0b86991c6218b36c1d19d4a2e9eb0ce3606eb48",
          "topics": [
            "0xddf252ad1be2c89b69c2b068fc378daa952ba7f163c4a11628f55a4df523b3ef",
            "0x000000000000000000000000bbbbbbbbbb9cc5e90e3b3af64bdaf62c37eeffcb",
            "0x000000000000000000000000d63070114470f685b75b74d60eec7c1113d33a3d"
          ],
          "data": "0x0000000000000000000000000000000000000000000000000000000002bf9490",
          "blockHash": "0xd2ea65de209bcb0e5de8e4f20ac569013a793e22a5c1f8a9cdaddf26dbef51ad",
          "blockNumber": "0x13c01ee",
          "blockTimestamp": "0x66de53ff",
          "transactionHash": "0x0cbd222168ebdb8f7f11785957cebb4b2c9325aaa215293d6146454bcd3e362c",
          "transactionIndex": "0xbe",
          "logIndex": "0x27c",
          "removed": false
        },
        {
          "address": "0xd63070114470f685b75b74d60eec7c1113d33a3d",
          "topics": [
            "0xddf252ad1be2c89b69c2b068fc378daa952ba7f163c4a11628f55a4df523b3ef",
            "0x0000000000000000000000001894259b98bdd9ed6c202749d2c0805b66b03c7f",
            "0x0000000000000000000000000000000000000000000000000000000000000000"
          ],
          "data": "0x000000000000000000000000000000000000000000000002785c18d406ec7474",
          "blockHash": "0xd2ea65de209bcb0e5de8e4f20ac569013a793e22a5c1f8a9cdaddf26dbef51ad",
          "blockNumber": "0x13c01ee",
          "blockTimestamp": "0x66de53ff",
          "transactionHash": "0x0cbd222168ebdb8f7f11785957cebb4b2c9325aaa215293d6146454bcd3e362c",
          "transactionIndex": "0xbe",
          "logIndex": "0x27d",
          "removed": false
        },
        {
          "address": "0xa0b86991c6218b36c1d19d4a2e9eb0ce3606eb48",
          "topics": [
            "0xddf252ad1be2c89b69c2b068fc378daa952ba7f163c4a11628f55a4df523b3ef",
            "0x000000000000000000000000d63070114470f685b75b74d60eec7c1113d33a3d",
            "0x0000000000000000000000001894259b98bdd9ed6c202749d2c0805b66b03c7f"
          ],
          "data": "0x0000000000000000000000000000000000000000000000000000000002bf9490",
          "blockHash": "0xd2ea65de209bcb0e5de8e4f20ac569013a793e22a5c1f8a9cdaddf26dbef51ad",
          "blockNumber": "0x13c01ee",
          "blockTimestamp": "0x66de53ff",
          "transactionHash": "0x0cbd222168ebdb8f7f11785957cebb4b2c9325aaa215293d6146454bcd3e362c",
          "transactionIndex": "0xbe",
          "logIndex": "0x27e",
          "removed": false
        },
        {
          "address": "0xd63070114470f685b75b74d60eec7c1113d33a3d",
          "topics": [
            "0xfbde797d201c681b91056529119e0b02407c7bb96a4a2c75c01fc9667232c8db",
            "0x0000000000000000000000001894259b98bdd9ed6c202749d2c0805b66b03c7f",
            "0x0000000000000000000000001894259b98bdd9ed6c202749d2c0805b66b03c7f",
            "0x0000000000000000000000001894259b98bdd9ed6c202749d2c0805b66b03c7f"
          ],
          "data": "0x0000000000000000000000000000000000000000000000000000000002bf9490000000000000000000000000000000000000000000000002785c18d406ec7474",
          "blockHash": "0xd2ea65de209bcb0e5de8e4f20ac569013a793e22a5c1f8a9cdaddf26dbef51ad",
          "blockNumber": "0x13c01ee",
          "blockTimestamp": "0x66de53ff",
          "transactionHash": "0x0cbd222168ebdb8f7f11785957cebb4b2c9325aaa215293d6146454bcd3e362c",
          "transactionIndex": "0xbe",
          "logIndex": "0x27f",
          "removed": false
        },
        {
          "address": "0x1894259b98bdd9ed6c202749d2c0805b66b03c7f",
          "topics": [
            "0x6828af310fc67fbe28c2fe710e266ceedadea989d0550bfe8a63ee9ac60bc10d"
          ],
          "data": "0x0000000000000000000000000000000000000000000000000000000002bf9491",
          "blockHash": "0xd2ea65de209bcb0e5de8e4f20ac569013a793e22a5c1f8a9cdaddf26dbef51ad",
          "blockNumber": "0x13c01ee",
          "blockTimestamp": "0x66de53ff",
          "transactionHash": "0x0cbd222168ebdb8f7f11785957cebb4b2c9325aaa215293d6146454bcd3e362c",
          "transactionIndex": "0xbe",
          "logIndex": "0x280",
          "removed": false
        },
        {
          "address": "0xa3da77204c6656c83596d97e5c60b90d630f1104",
          "topics": [
            "0x3be45e9daf74c4e9eae68351b88f6b505e5180bed5448609bf2b43a4360d52b7"
          ],
          "data": "0x0000000000000000000000001894259b98bdd9ed6c202749d2c0805b66b03c7f0000000000000000000000000000000000000000000000000000000002bf9491",
          "blockHash": "0xd2ea65de209bcb0e5de8e4f20ac569013a793e22a5c1f8a9cdaddf26dbef51ad",
          "blockNumber": "0x13c01ee",
          "blockTimestamp": "0x66de53ff",
          "transactionHash": "0x0cbd222168ebdb8f7f11785957cebb4b2c9325aaa215293d6146454bcd3e362c",
          "transactionIndex": "0xbe",
          "logIndex": "0x281",
          "removed": false
        }
      ],
      "logsBloom": "0x00000000000000400000000000000080200002000000000000000000000000001000000000000000000000000000020000000004000000000000000002020000000000000110000008000008200000000000000000000000080000000000000000000000020100008100000000000801000000000000000010000010000000000008000000000008100000000000000000000040010000004020000000040400000000000020200000800002000000020000100004000000100000000000000021000002000000000000000000000000000000000000000000000000040120000020000001000000000000240000000008000000000000000000000040000100",
      "type": "0x0",
      "transactionHash": "0x0cbd222168ebdb8f7f11785957cebb4b2c9325aaa215293d6146454bcd3e362c",
      "transactionIndex": "0xbe",
      "blockHash": "0xd2ea65de209bcb0e5de8e4f20ac569013a793e22a5c1f8a9cdaddf26dbef51ad",
      "blockNumber": "0x13c01ee",
      "gasUsed": "0x6ab7f",
      "effectiveGasPrice": "0x3de57b2f",
      "from": "0xc49b5e5b9da66b9126c1a62e9761e6b2147de3e1",
      "to": "0xa3da77204c6656c83596d97e5c60b90d630f1104",
      "contractAddress": null
    },
    {
      "status": "0x1",
      "cumulativeGasUsed": "0x15722df",
      "logs": [
        {
          "address": "0xa0b86991c6218b36c1d19d4a2e9eb0ce3606eb48",
          "topics": [
            "0xddf252ad1be2c89b69c2b068fc378daa952ba7f163c4a11628f55a4df523b3ef",
            "0x0000000000000000000000001894259b98bdd9ed6c202749d2c0805b66b03c7f",
            "0x000000000000000000000000a3da77204c6656c83596d97e5c60b90d630f1104"
          ],
          "data": "0x0000000000000000000000000000000000000000000000000000000002bf9490",
          "blockHash": "0xd2ea65de209bcb0e5de8e4f20ac569013a793e22a5c1f8a9cdaddf26dbef51ad",
          "blockNumber": "0x13c01ee",
          "blockTimestamp": "0x66de53ff",
          "transactionHash": "0x7178eb27a1cbc7f876ae03a19d93a2724ef273fcf8806d53b35ea3b48bc379ea",
          "transactionIndex": "0xc9",
          "logIndex": "0x2a4",
          "removed": false
        },
        {
          "address": "0x1894259b98bdd9ed6c202749d2c0805b66b03c7f",
          "topics": [
            "0xd27cf5576b6fe9fc802924bbeffa3dae5cd1eedf51797e0440959aaca4fe68dc"
          ],
          "data": "0x000000000000000000000000a0b86991c6218b36c1d19d4a2e9eb0ce3606eb480000000000000000000000000000000000000000000000000000000002bf9490",
          "blockHash": "0xd2ea65de209bcb0e5de8e4f20ac569013a793e22a5c1f8a9cdaddf26dbef51ad",
          "blockNumber": "0x13c01ee",
          "blockTimestamp": "0x66de53ff",
          "transactionHash": "0x7178eb27a1cbc7f876ae03a19d93a2724ef273fcf8806d53b35ea3b48bc379ea",
          "transactionIndex": "0xc9",
          "logIndex": "0x2a5",
          "removed": false
        },
        {
          "address": "0xa3da77204c6656c83596d97e5c60b90d630f1104",
          "topics": [
            "0xe3506e43e16d2ad0ab199f9bebfff9c0a7e5071a6891101e5e3c2d0230e8f851"
          ],
          "data": "0x000000000000000000000000a0b86991c6218b36c1d19d4a2e9eb0ce3606eb480000000000000000000000000000000000000000000000000000000002bf94900000000000000000000000001894259b98bdd9ed6c202749d2c0805b66b03c7f",
          "blockHash": "0xd2ea65de209bcb0e5de8e4f20ac569013a793e22a5c1f8a9cdaddf26dbef51ad",
          "blockNumber": "0x13c01ee",
          "blockTimestamp": "0x66de53ff",
          "transactionHash": "0x7178eb27a1cbc7f876ae03a19d93a2724ef273fcf8806d53b35ea3b48bc379ea",
          "transactionIndex": "0xc9",
          "logIndex": "0x2a6",
          "removed": false
        }
      ],
      "logsBloom": "0x00000000000000000000000000000000000000000000000000000000000000000000000000000000000000000000000000000000008000000000000002020000000000000000000008000008000000000000000000000000000000000000000000000000000100000000200000000000000000000000000000000010000000000000000000000000000020000000000000000040010000000000000000000000000000000000200000040003000000000000000000000000100000000000000000000402020000000000000000000000000000000000000010000000000100000020000000000040000000000000000000000000000000000000000000000100",
      "type": "0x0",
      "transactionHash": "0x7178eb27a1cbc7f876ae03a19d93a2724ef273fcf8806d53b35ea3b48bc379ea",
      "transactionIndex": "0xc9",
      "blockHash": "0xd2ea65de209bcb0e5de8e4f20ac569013a793e22a5c1f8a9cdaddf26dbef51ad",
      "blockNumber": "0x13c01ee",
      "gasUsed": "0x12bbe",
      "effectiveGasPrice": "0x3de57b2f",
      "from": "0xc49b5e5b9da66b9126c1a62e9761e6b2147de3e1",
      "to": "0xa3da77204c6656c83596d97e5c60b90d630f1104",
      "contractAddress": null
    },
    {
      "status": "0x1",
      "cumulativeGasUsed": "0x15d3179",
      "logs": [
        {
          "address": "0xa0b86991c6218b36c1d19d4a2e9eb0ce3606eb48",
          "topics": [
            "0xddf252ad1be2c89b69c2b068fc378daa952ba7f163c4a11628f55a4df523b3ef",
            "0x000000000000000000000000a3da77204c6656c83596d97e5c60b90d630f1104",
            "0x000000000000000000000000790ac11183dde23163b307e3f7440f2460526957"
          ],
          "data": "0x0000000000000000000000000000000000000000000000000000000002bf9490",
          "blockHash": "0xd2ea65de209bcb0e5de8e4f20ac569013a793e22a5c1f8a9cdaddf26dbef51ad",
          "blockNumber": "0x13c01ee",
          "blockTimestamp": "0x66de53ff",
          "transactionHash": "0xdc2e5e4cd28b2150db59faea1942b52e498894ebc1e3fde4e1e65be28130f1f0",
          "transactionIndex": "0xcd",
          "logIndex": "0x2b1",
          "removed": false
        },
        {
          "address": "0xa3da77204c6656c83596d97e5c60b90d630f1104",
          "topics": [
            "0x6726e5a5b6daf5db4cb05184cc812832104a3e35256d2077cecbfcbf1112a6fd"
          ],
          "data": "0x000000000000000000000000a0b86991c6218b36c1d19d4a2e9eb0ce3606eb480000000000000000000000000000000000000000000000000000000002bf9490000000000000000000000000790ac11183dde23163b307e3f7440f2460526957",
          "blockHash": "0xd2ea65de209bcb0e5de8e4f20ac569013a793e22a5c1f8a9cdaddf26dbef51ad",
          "blockNumber": "0x13c01ee",
          "blockTimestamp": "0x66de53ff",
          "transactionHash": "0xdc2e5e4cd28b2150db59faea1942b52e498894ebc1e3fde4e1e65be28130f1f0",
          "transactionIndex": "0xcd",
          "logIndex": "0x2b2",
          "removed": false
        }
      ],
      "logsBloom": "0x00000000000000000000000000000000040000000000000000000000000000000000000000000000000002000000000000000000008000000000000000000000000000100000000008000008000000000000000000000000000000000000000000000000000000000000200000000000000000000000000000000010000000000020000000000000000000000000000000000040010000000000000000000000000000000000200000040000000400000000000000000000000000000000000000000002000000000000000000000000000000000000000000000000000100000000000000000000000000000000000000000000000000000000080000000100",
      "type": "0x0",
      "transactionHash": "0xdc2e5e4cd28b2150db59faea1942b52e498894ebc1e3fde4e1e65be28130f1f0",
      "transactionIndex": "0xcd",
      "blockHash": "0xd2ea65de209bcb0e5de8e4f20ac569013a793e22a5c1f8a9cdaddf26dbef51ad",
      "blockNumber": "0x13c01ee",
      "gasUsed": "0xd4dc",
      "effectiveGasPrice": "0x3de57b2f",
      "from": "0xc49b5e5b9da66b9126c1a62e9761e6b2147de3e1",
      "to": "0xa3da77204c6656c83596d97e5c60b90d630f1104",
      "contractAddress": null
    }
  ],
  "libraries": [],
  "pending": [],
  "returns": {},
  "timestamp": 1725846539,
  "chain": 1,
  "commit": "fa4ea12"
}