{
  "transactions": [
    {
      "hash": "0x819c4c8187db6fe6b14dba65640f5694e1f11c17545cfded15c6ee989d8bed82",
      "transactionType": "CALL",
      "contractName": null,
      "contractAddress": "0x6ac25f85a8fa9a7d77b3f2165103fc0f09642b6a",
      "function": "settle(uint256)",
      "arguments": [
        "31"
      ],
      "transaction": {
        "from": "0xc49b5e5b9da66b9126c1a62e9761e6b2147de3e1",
        "to": "0x6ac25f85a8fa9a7d77b3f2165103fc0f09642b6a",
        "gas": "0x120839",
        "value": "0x0",
        "input": "0x8df82800000000000000000000000000000000000000000000000000000000000000001f",
        "nonce": "0x43",
        "chainId": "0x1"
      },
      "additionalContracts": [],
      "isFixedGasLimit": false
    },
    {
      "hash": "0x3f259cb5d8c8e93111daf8b254aea1ec05cc05ceba816fa936aedf537cadd941",
      "transactionType": "CALL",
      "contractName": null,
      "contractAddress": "0x09e52aa36484c20288d9c148458ea4da991118af",
      "function": "redeem(address,uint256)",
      "arguments": [
        "0x6ac25F85a8fA9a7D77B3f2165103Fc0F09642B6A",
        "46129869"
      ],
      "transaction": {
        "from": "0xc49b5e5b9da66b9126c1a62e9761e6b2147de3e1",
        "to": "0x09e52aa36484c20288d9c148458ea4da991118af",
        "gas": "0x7ea47",
        "value": "0x0",
        "input": "0x1e9a69500000000000000000000000006ac25f85a8fa9a7d77b3f2165103fc0f09642b6a0000000000000000000000000000000000000000000000000000000002bfe2cd",
        "nonce": "0x44",
        "chainId": "0x1"
      },
      "additionalContracts": [],
      "isFixedGasLimit": false
    },
    {
      "hash": "0xe2e8086245e19541597f084123ab17821941aeae683a41203ace56076945f21c",
      "transactionType": "CALL",
      "contractName": null,
      "contractAddress": "0x09e52aa36484c20288d9c148458ea4da991118af",
      "function": "withdrawFromStrategy(address,uint256)",
      "arguments": [
        "0x6ac25F85a8fA9a7D77B3f2165103Fc0F09642B6A",
        "46129868"
      ],
      "transaction": {
        "from": "0xc49b5e5b9da66b9126c1a62e9761e6b2147de3e1",
        "to": "0x09e52aa36484c20288d9c148458ea4da991118af",
        "gas": "0x1b64d",
        "value": "0x0",
        "input": "0xb53d09580000000000000000000000006ac25f85a8fa9a7d77b3f2165103fc0f09642b6a0000000000000000000000000000000000000000000000000000000002bfe2cc",
        "nonce": "0x45",
        "chainId": "0x1"
      },
      "additionalContracts": [],
      "isFixedGasLimit": false
    },
    {
      "hash": "0x50d12acdff3b6e1903cb998c5701790daca7e8b0dec691e51ea781c7a37bf6bc",
      "transactionType": "CALL",
      "contractName": null,
      "contractAddress": "0x09e52aa36484c20288d9c148458ea4da991118af",
      "function": "withdrawToCEX(address,uint256,address)",
      "arguments": [
        "0xA0b86991c6218b36c1d19D4a2e9Eb0cE3606eB48",
        "46129868",
        "0x790ac11183ddE23163b307E3F7440F2460526957"
      ],
      "transaction": {
        "from": "0xc49b5e5b9da66b9126c1a62e9761e6b2147de3e1",
        "to": "0x09e52aa36484c20288d9c148458ea4da991118af",
        "gas": "0x18245",
        "value": "0x0",
        "input": "0xd9bb89a8000000000000000000000000a0b86991c6218b36c1d19d4a2e9eb0ce3606eb480000000000000000000000000000000000000000000000000000000002bfe2cc000000000000000000000000790ac11183dde23163b307e3f7440f2460526957",
        "nonce": "0x46",
        "chainId": "0x1"
      },
      "additionalContracts": [],
      "isFixedGasLimit": false
    }
  ],
  "receipts": [
    {
      "status": "0x1",
      "cumulativeGasUsed": "0xc6071c",
      "logs": [
        {
          "address": "0xd63070114470f685b75b74d60eec7c1113d33a3d",
          "topics": [
            "0xddf252ad1be2c89b69c2b068fc378daa952ba7f163c4a11628f55a4df523b3ef",
            "0x0000000000000000000000000000000000000000000000000000000000000000",
            "0x00000000000000000000000039cba2e8b93faacd9266821fb9320596e4aad410"
          ],
          "data": "0x00000000000000000000000000000000000000000000000036e4dace21dcbf3c",
          "blockHash": "0xb01bf52f7d0d0ef98df5d71767130702241a7b4ec1190f70567634d955df57c7",
          "blockNumber": "0x13c039a",
          "blockTimestamp": "0x66de681b",
          "transactionHash": "0x819c4c8187db6fe6b14dba65640f5694e1f11c17545cfded15c6ee989d8bed82",
          "transactionIndex": "0x77",
          "logIndex": "0x132",
          "removed": false
        },
        {
          "address": "0xd63070114470f685b75b74d60eec7c1113d33a3d",
          "topics": [
            "0xf66f28b40975dbb933913542c7e6a0f50a1d0f20aa74ea6e0efe65ab616323ec"
          ],
          "data": "0x00000000000000000000000000000000000000000000000000002ee13f2f02b400000000000000000000000000000000000000000000000036e4dace21dcbf3c",
          "blockHash": "0xb01bf52f7d0d0ef98df5d71767130702241a7b4ec1190f70567634d955df57c7",
          "blockNumber": "0x13c039a",
          "blockTimestamp": "0x66de681b",
          "transactionHash": "0x819c4c8187db6fe6b14dba65640f5694e1f11c17545cfded15c6ee989d8bed82",
          "transactionIndex": "0x77",
          "logIndex": "0x133",
          "removed": false
        },
        {
          "address": "0xd63070114470f685b75b74d60eec7c1113d33a3d",
          "topics": [
            "0x15c027cc4fd826d986cad358803439f7326d3aa4ed969ff90dbee4bc150f68e9"
          ],
          "data": "0x00000000000000000000000000000000000000000000000000002ee13f2f02b3",
          "blockHash": "0xb01bf52f7d0d0ef98df5d71767130702241a7b4ec1190f70567634d955df57c7",
          "blockNumber": "0x13c039a",
          "blockTimestamp": "0x66de681b",
          "transactionHash": "0x819c4c8187db6fe6b14dba65640f5694e1f11c17545cfded15c6ee989d8bed82",
          "transactionIndex": "0x77",
          "logIndex": "0x134",
          "removed": false
        },
        {
          "address": "0xbbbbbbbbbb9cc5e90e3b3af64bdaf62c37eeffcb",
          "topics": [
            "0xa56fc0ad5702ec05ce63666221f796fb62437c32db1aa1aa075fc6484cf58fbf",
            "0x54efdee08e272e929034a8f26f7ca34b1ebe364b275391169b28c6d7db24dbc8",
            "0x000000000000000000000000d63070114470f685b75b74d60eec7c1113d33a3d",
            "0x000000000000000000000000d63070114470f685b75b74d60eec7c1113d33a3d"
          ],
          "data": "0x000000000000000000000000d63070114470f685b75b74d60eec7c1113d33a3d000000000000000000000000000000000000000000000000000000000000000100000000000000000000000000000000000000000000000000000000000f4240",
          "blockHash": "0xb01bf52f7d0d0ef98df5d71767130702241a7b4ec1190f70567634d955df57c7",
          "blockNumber": "0x13c039a",
          "blockTimestamp": "0x66de681b",
          "transactionHash": "0x819c4c8187db6fe6b14dba65640f5694e1f11c17545cfded15c6ee989d8bed82",
          "transactionIndex": "0x77",
          "logIndex": "0x135",
          "removed": false
        },
        {
          "address": "0xa0b86991c6218b36c1d19d4a2e9eb0ce3606eb48",
          "topics": [
            "0xddf252ad1be2c89b69c2b068fc378daa952ba7f163c4a11628f55a4df523b3ef",
            "0x000000000000000000000000bbbbbbbbbb9cc5e90e3b3af64bdaf62c37eeffcb",
            "0x000000000000000000000000d63070114470f685b75b74d60eec7c1113d33a3d"
          ],
          "data": "0x0000000000000000000000000000000000000000000000000000000000000001",
          "blockHash": "0xb01bf52f7d0d0ef98df5d71767130702241a7b4ec1190f70567634d955df57c7",
          "blockNumber": "0x13c039a",
          "blockTimestamp": "0x66de681b",
          "transactionHash": "0x819c4c8187db6fe6b14dba65640f5694e1f11c17545cfded15c6ee989d8bed82",
          "transactionIndex": "0x77",
          "logIndex": "0x136",
          "removed": false
        },
        {
          "address": "0xd63070114470f685b75b74d60eec7c1113d33a3d",
          "topics": [
            "0xddf252ad1be2c89b69c2b068fc378daa952ba7f163c4a11628f55a4df523b3ef",
            "0x0000000000000000000000006ac25f85a8fa9a7d77b3f2165103fc0f09642b6a",
            "0x0000000000000000000000000000000000000000000000000000000000000000"
          ],
          "data": "0x00000000000000000000000000000000000000000000000000000164a179bc91",
          "blockHash": "0xb01bf52f7d0d0ef98df5d71767130702241a7b4ec1190f70567634d955df57c7",
          "blockNumber": "0x13c039a",
          "blockTimestamp": "0x66de681b",
          "transactionHash": "0x819c4c8187db6fe6b14dba65640f5694e1f11c17545cfded15c6ee989d8bed82",
          "transactionIndex": "0x77",
          "logIndex": "0x137",
          "removed": false
        },
        {
          "address": "0xa0b86991c6218b36c1d19d4a2e9eb0ce3606eb48",
          "topics": [
            "0xddf252ad1be2c89b69c2b068fc378daa952ba7f163c4a11628f55a4df523b3ef",
            "0x000000000000000000000000d63070114470f685b75b74d60eec7c1113d33a3d",
            "0x000000000000000000000000c49b5e5b9da66b9126c1a62e9761e6b2147de3e1"
          ],
          "data": "0x0000000000000000000000000000000000000000000000000000000000000001",
          "blockHash": "0xb01bf52f7d0d0ef98df5d71767130702241a7b4ec1190f70567634d955df57c7",
          "blockNumber": "0x13c039a",
          "blockTimestamp": "0x66de681b",
          "transactionHash": "0x819c4c8187db6fe6b14dba65640f5694e1f11c17545cfded15c6ee989d8bed82",
          "transactionIndex": "0x77",
          "logIndex": "0x138",
          "removed": false
        },
        {
          "address": "0xd63070114470f685b75b74d60eec7c1113d33a3d",
          "topics": [
            "0xfbde797d201c681b91056529119e0b02407c7bb96a4a2c75c01fc9667232c8db",
            "0x0000000000000000000000006ac25f85a8fa9a7d77b3f2165103fc0f09642b6a",
            "0x000000000000000000000000c49b5e5b9da66b9126c1a62e9761e6b2147de3e1",
            "0x0000000000000000000000006ac25f85a8fa9a7d77b3f2165103fc0f09642b6a"
          ],
          "data": "0x000000000000000000000000000000000000000000000000000000000000000100000000000000000000000000000000000000000000000000000164a179bc91",
          "blockHash": "0xb01bf52f7d0d0ef98df5d71767130702241a7b4ec1190f70567634d955df57c7",
          "blockNumber": "0x13c039a",
          "blockTimestamp": "0x66de681b",
          "transactionHash": "0x819c4c8187db6fe6b14dba65640f5694e1f11c17545cfded15c6ee989d8bed82",
          "transactionIndex": "0x77",
          "logIndex": "0x139",
          "removed": false
        },
        {
          "address": "0xd63070114470f685b75b74d60eec7c1113d33a3d",
          "topics": [
            "0xf66f28b40975dbb933913542c7e6a0f50a1d0f20aa74ea6e0efe65ab616323ec"
          ],
          "data": "0x00000000000000000000000000000000000000000000000000002ee13f2f02b30000000000000000000000000000000000000000000000000000000000000000",
          "blockHash": "0xb01bf52f7d0d0ef98df5d71767130702241a7b4ec1190f70567634d955df57c7",
          "blockNumber": "0x13c039a",
          "blockTimestamp": "0x66de681b",
          "transactionHash": "0x819c4c8187db6fe6b14dba65640f5694e1f11c17545cfded15c6ee989d8bed82",
          "transactionIndex": "0x77",
          "logIndex": "0x13a",
          "removed": false
        },
        {
          "address": "0xd63070114470f685b75b74d60eec7c1113d33a3d",
          "topics": [
            "0x15c027cc4fd826d986cad358803439f7326d3aa4ed969ff90dbee4bc150f68e9"
          ],
          "data": "0x00000000000000000000000000000000000000000000000000002ee13f2f0296",
          "blockHash": "0xb01bf52f7d0d0ef98df5d71767130702241a7b4ec1190f70567634d955df57c7",
          "blockNumber": "0x13c039a",
          "blockTimestamp": "0x66de681b",
          "transactionHash": "0x819c4c8187db6fe6b14dba65640f5694e1f11c17545cfded15c6ee989d8bed82",
          "transactionIndex": "0x77",
          "logIndex": "0x13b",
          "removed": false
        },
        {
          "address": "0xbbbbbbbbbb9cc5e90e3b3af64bdaf62c37eeffcb",
          "topics": [
            "0xa56fc0ad5702ec05ce63666221f796fb62437c32db1aa1aa075fc6484cf58fbf",
            "0x54efdee08e272e929034a8f26f7ca34b1ebe364b275391169b28c6d7db24dbc8",
            "0x000000000000000000000000d63070114470f685b75b74d60eec7c1113d33a3d",
            "0x000000000000000000000000d63070114470f685b75b74d60eec7c1113d33a3d"
          ],
          "data": "0x000000000000000000000000d63070114470f685b75b74d60eec7c1113d33a3d000000000000000000000000000000000000000000000000000000000000001d0000000000000000000000000000000000000000000000000000000001ba8140",
          "blockHash": "0xb01bf52f7d0d0ef98df5d71767130702241a7b4ec1190f70567634d955df57c7",
          "blockNumber": "0x13c039a",
          "blockTimestamp": "0x66de681b",
          "transactionHash": "0x819c4c8187db6fe6b14dba65640f5694e1f11c17545cfded15c6ee989d8bed82",
          "transactionIndex": "0x77",
          "logIndex": "0x13c",
          "removed": false
        },
        {
          "address": "0xa0b86991c6218b36c1d19d4a2e9eb0ce3606eb48",
          "topics": [
            "0xddf252ad1be2c89b69c2b068fc378daa952ba7f163c4a11628f55a4df523b3ef",
            "0x000000000000000000000000bbbbbbbbbb9cc5e90e3b3af64bdaf62c37eeffcb",
            "0x000000000000000000000000d63070114470f685b75b74d60eec7c1113d33a3d"
          ],
          "data": "0x000000000000000000000000000000000000000000000000000000000000001d",
          "blockHash": "0xb01bf52f7d0d0ef98df5d71767130702241a7b4ec1190f70567634d955df57c7",
          "blockNumber": "0x13c039a",
          "blockTimestamp": "0x66de681b",
          "transactionHash": "0x819c4c8187db6fe6b14dba65640f5694e1f11c17545cfded15c6ee989d8bed82",
          "transactionIndex": "0x77",
          "logIndex": "0x13d",
          "removed": false
        },
        {
          "address": "0xd63070114470f685b75b74d60eec7c1113d33a3d",
          "topics": [
            "0xddf252ad1be2c89b69c2b068fc378daa952ba7f163c4a11628f55a4df523b3ef",
            "0x0000000000000000000000006ac25f85a8fa9a7d77b3f2165103fc0f09642b6a",
            "0x0000000000000000000000000000000000000000000000000000000000000000"
          ],
          "data": "0x00000000000000000000000000000000000000000000000000001a77fc08fecf",
          "blockHash": "0xb01bf52f7d0d0ef98df5d71767130702241a7b4ec1190f70567634d955df57c7",
          "blockNumber": "0x13c039a",
          "blockTimestamp": "0x66de681b",
          "transactionHash": "0x819c4c8187db6fe6b14dba65640f5694e1f11c17545cfded15c6ee989d8bed82",
          "transactionIndex": "0x77",
          "logIndex": "0x13e",
          "removed": false
        },
        {
          "address": "0xa0b86991c6218b36c1d19d4a2e9eb0ce3606eb48",
          "topics": [
            "0xddf252ad1be2c89b69c2b068fc378daa952ba7f163c4a11628f55a4df523b3ef",
            "0x000000000000000000000000d63070114470f685b75b74d60eec7c1113d33a3d",
            "0x0000000000000000000000006ac25f85a8fa9a7d77b3f2165103fc0f09642b6a"
          ],
          "data": "0x000000000000000000000000000000000000000000000000000000000000001d",
          "blockHash": "0xb01bf52f7d0d0ef98df5d71767130702241a7b4ec1190f70567634d955df57c7",
          "blockNumber": "0x13c039a",
          "blockTimestamp": "0x66de681b",
          "transactionHash": "0x819c4c8187db6fe6b14dba65640f5694e1f11c17545cfded15c6ee989d8bed82",
          "transactionIndex": "0x77",
          "logIndex": "0x13f",
          "removed": false
        },
        {
          "address": "0xd63070114470f685b75b74d60eec7c1113d33a3d",
          "topics": [
            "0xfbde797d201c681b91056529119e0b02407c7bb96a4a2c75c01fc9667232c8db",
            "0x0000000000000000000000006ac25f85a8fa9a7d77b3f2165103fc0f09642b6a",
            "0x0000000000000000000000006ac25f85a8fa9a7d77b3f2165103fc0f09642b6a",
            "0x0000000000000000000000006ac25f85a8fa9a7d77b3f2165103fc0f09642b6a"
          ],
          "data": "0x000000000000000000000000000000000000000000000000000000000000001d00000000000000000000000000000000000000000000000000001a77fc08fecf",
          "blockHash": "0xb01bf52f7d0d0ef98df5d71767130702241a7b4ec1190f70567634d955df57c7",
          "blockNumber": "0x13c039a",
          "blockTimestamp": "0x66de681b",
          "transactionHash": "0x819c4c8187db6fe6b14dba65640f5694e1f11c17545cfded15c6ee989d8bed82",
          "transactionIndex": "0x77",
          "logIndex": "0x140",
          "removed": false
        },
        {
          "address": "0xa0b86991c6218b36c1d19d4a2e9eb0ce3606eb48",
          "topics": [
            "0x8c5be1e5ebec7d5bd14f71427d1e84f3dd0314c0f7b2291e5b200ac8c7c3b925",
            "0x0000000000000000000000006ac25f85a8fa9a7d77b3f2165103fc0f09642b6a",
            "0x000000000000000000000000d63070114470f685b75b74d60eec7c1113d33a3d"
          ],
          "data": "0x000000000000000000000000000000000000000000000000000000000000001d",
          "blockHash": "0xb01bf52f7d0d0ef98df5d71767130702241a7b4ec1190f70567634d955df57c7",
          "blockNumber": "0x13c039a",
          "blockTimestamp": "0x66de681b",
          "transactionHash": "0x819c4c8187db6fe6b14dba65640f5694e1f11c17545cfded15c6ee989d8bed82",
          "transactionIndex": "0x77",
          "logIndex": "0x141",
          "removed": false
        },
        {
          "address": "0xd63070114470f685b75b74d60eec7c1113d33a3d",
          "topics": [
            "0xf66f28b40975dbb933913542c7e6a0f50a1d0f20aa74ea6e0efe65ab616323ec"
          ],
          "data": "0x00000000000000000000000000000000000000000000000000002ee13f2f02960000000000000000000000000000000000000000000000000000000000000000",
          "blockHash": "0xb01bf52f7d0d0ef98df5d71767130702241a7b4ec1190f70567634d955df57c7",
          "blockNumber": "0x13c039a",
          "blockTimestamp": "0x66de681b",
          "transactionHash": "0x819c4c8187db6fe6b14dba65640f5694e1f11c17545cfded15c6ee989d8bed82",
          "transactionIndex": "0x77",
          "logIndex": "0x142",
          "removed": false
        },
        {
          "address": "0xa0b86991c6218b36c1d19d4a2e9eb0ce3606eb48",
          "topics": [
            "0xddf252ad1be2c89b69c2b068fc378daa952ba7f163c4a11628f55a4df523b3ef",
            "0x0000000000000000000000006ac25f85a8fa9a7d77b3f2165103fc0f09642b6a",
            "0x000000000000000000000000d63070114470f685b75b74d60eec7c1113d33a3d"
          ],
          "data": "0x000000000000000000000000000000000000000000000000000000000000001d",
          "blockHash": "0xb01bf52f7d0d0ef98df5d71767130702241a7b4ec1190f70567634d955df57c7",
          "blockNumber": "0x13c039a",
          "blockTimestamp": "0x66de681b",
          "transactionHash": "0x819c4c8187db6fe6b14dba65640f5694e1f11c17545cfded15c6ee989d8bed82",
          "transactionIndex": "0x77",
          "logIndex": "0x143",
          "removed": false
        },
        {
          "address": "0xd63070114470f685b75b74d60eec7c1113d33a3d",
          "topics": [
            "0xddf252ad1be2c89b69c2b068fc378daa952ba7f163c4a11628f55a4df523b3ef",
            "0x0000000000000000000000000000000000000000000000000000000000000000",
            "0x0000000000000000000000006ac25f85a8fa9a7d77b3f2165103fc0f09642b6a"
          ],
          "data": "0x00000000000000000000000000000000000000000000000000001a10725101dd",
          "blockHash": "0xb01bf52f7d0d0ef98df5d71767130702241a7b4ec1190f70567634d955df57c7",
          "blockNumber": "0x13c039a",
          "blockTimestamp": "0x66de681b",
          "transactionHash": "0x819c4c8187db6fe6b14dba65640f5694e1f11c17545cfded15c6ee989d8bed82",
          "transactionIndex": "0x77",
          "logIndex": "0x144",
          "removed": false
        },
        {
          "address": "0xd63070114470f685b75b74d60eec7c1113d33a3d",
          "topics": [
            "0xdcbc1c05240f31ff3ad067ef1ee35ce4997762752e3a095284754544f4c709d7",
            "0x0000000000000000000000006ac25f85a8fa9a7d77b3f2165103fc0f09642b6a",
            "0x0000000000000000000000006ac25f85a8fa9a7d77b3f2165103fc0f09642b6a"
          ],
          "data": "0x000000000000000000000000000000000000000000000000000000000000001d00000000000000000000000000000000000000000000000000001a10725101dd",
          "blockHash": "0xb01bf52f7d0d0ef98df5d71767130702241a7b4ec1190f70567634d955df57c7",
          "blockNumber": "0x13c039a",
          "blockTimestamp": "0x66de681b",
          "transactionHash": "0x819c4c8187db6fe6b14dba65640f5694e1f11c17545cfded15c6ee989d8bed82",
          "transactionIndex": "0x77",
          "logIndex": "0x145",
          "removed": false
        },
        {
          "address": "0x870ac11d48b15db9a138cf899d20f13f79ba00bc",
          "topics": [
            "0x7120161a7b3d31251e01294ab351ef15a41b91659a36032e4641bb89b121e321",
            "0xb48bb53f0f2690c71e8813f2dc7ed6fca9ac4b0ace3faa37b4a8e5ece38fa1a2"
          ],
          "data": "0x00000000000000000000000000000000000000000000000000000000a000051100000000000000000000000000000000000000000000000000000000a97a372e",
          "blockHash": "0xb01bf52f7d0d0ef98df5d71767130702241a7b4ec1190f70567634d955df57c7",
          "blockNumber": "0x13c039a",
          "blockTimestamp": "0x66de681b",
          "transactionHash": "0x819c4c8187db6fe6b14dba65640f5694e1f11c17545cfded15c6ee989d8bed82",
          "transactionIndex": "0x77",
          "logIndex": "0x146",
          "removed": false
        },
        {
          "address": "0xbbbbbbbbbb9cc5e90e3b3af64bdaf62c37eeffcb",
          "topics": [
            "0x9d9bd501d0657d7dfe415f779a620a62b78bc508ddc0891fbbd8b7ac0f8fce87",
            "0xb48bb53f0f2690c71e8813f2dc7ed6fca9ac4b0ace3faa37b4a8e5ece38fa1a2"
          ],
          "data": "0x00000000000000000000000000000000000000000000000000000000a000051100000000000000000000000000000000000000000000000000000000022d80c30000000000000000000000000000000000000000000000000000000000000000",
          "blockHash": "0xb01bf52f7d0d0ef98df5d71767130702241a7b4ec1190f70567634d955df57c7",
          "blockNumber": "0x13c039a",
          "blockTimestamp": "0x66de681b",
          "transactionHash": "0x819c4c8187db6fe6b14dba65640f5694e1f11c17545cfded15c6ee989d8bed82",
          "transactionIndex": "0x77",
          "logIndex": "0x147",
          "removed": false
        },
        {
          "address": "0x870ac11d48b15db9a138cf899d20f13f79ba00bc",
          "topics": [
            "0x7120161a7b3d31251e01294ab351ef15a41b91659a36032e4641bb89b121e321",
            "0x864c9b82eb066ae2c038ba763dfc0221001e62fc40925530056349633eb0a259"
          ],
          "data": "0x0000000000000000000000000000000000000000000000000000000067e375960000000000000000000000000000000000000000000000000000000081084fd4",
          "blockHash": "0xb01bf52f7d0d0ef98df5d71767130702241a7b4ec1190f70567634d955df57c7",
          "blockNumber": "0x13c039a",
          "blockTimestamp": "0x66de681b",
          "transactionHash": "0x819c4c8187db6fe6b14dba65640f5694e1f11c17545cfded15c6ee989d8bed82",
          "transactionIndex": "0x77",
          "logIndex": "0x148",
          "removed": false
        },
        {
          "address": "0xbbbbbbbbbb9cc5e90e3b3af64bdaf62c37eeffcb",
          "topics": [
            "0x9d9bd501d0657d7dfe415f779a620a62b78bc508ddc0891fbbd8b7ac0f8fce87",
            "0x864c9b82eb066ae2c038ba763dfc0221001e62fc40925530056349633eb0a259"
          ],
          "data": "0x0000000000000000000000000000000000000000000000000000000067e3759600000000000000000000000000000000000000000000000000000000010ee0220000000000000000000000000000000000000000000000000000000000000000",
          "blockHash": "0xb01bf52f7d0d0ef98df5d71767130702241a7b4ec1190f70567634d955df57c7",
          "blockNumber": "0x13c039a",
          "blockTimestamp": "0x66de681b",
          "transactionHash": "0x819c4c8187db6fe6b14dba65640f5694e1f11c17545cfded15c6ee989d8bed82",
          "transactionIndex": "0x77",
          "logIndex": "0x149",
          "removed": false
        },
        {
          "address": "0xbbbbbbbbbb9cc5e90e3b3af64bdaf62c37eeffcb",
          "topics": [
            "0xedf8870433c83823eb071d3df1caa8d008f12f6440918c20d75a3602cda30fe0",
            "0x54efdee08e272e929034a8f26f7ca34b1ebe364b275391169b28c6d7db24dbc8",
            "0x000000000000000000000000d63070114470f685b75b74d60eec7c1113d33a3d",
            "0x000000000000000000000000d63070114470f685b75b74d60eec7c1113d33a3d"
          ],
          "data": "0x000000000000000000000000000000000000000000000000000000000000001d0000000000000000000000000000000000000000000000000000000001ba8140",
          "blockHash": "0xb01bf52f7d0d0ef98df5d71767130702241a7b4ec1190f70567634d955df57c7",
          "blockNumber": "0x13c039a",
          "blockTimestamp": "0x66de681b",
          "transactionHash": "0x819c4c8187db6fe6b14dba65640f5694e1f11c17545cfded15c6ee989d8bed82",
          "transactionIndex": "0x77",
          "logIndex": "0x14a",
          "removed": false
        },
        {
          "address": "0xa0b86991c6218b36c1d19d4a2e9eb0ce3606eb48",
          "topics": [
            "0xddf252ad1be2c89b69c2b068fc378daa952ba7f163c4a11628f55a4df523b3ef",
            "0x000000000000000000000000d63070114470f685b75b74d60eec7c1113d33a3d",
            "0x000000000000000000000000bbbbbbbbbb9cc5e90e3b3af64bdaf62c37eeffcb"
          ],
          "data": "0x000000000000000000000000000000000000000000000000000000000000001d",
          "blockHash": "0xb01bf52f7d0d0ef98df5d71767130702241a7b4ec1190f70567634d955df57c7",
          "blockNumber": "0x13c039a",
          "blockTimestamp": "0x66de681b",
          "transactionHash": "0x819c4c8187db6fe6b14dba65640f5694e1f11c17545cfded15c6ee989d8bed82",
          "transactionIndex": "0x77",
          "logIndex": "0x14b",
          "removed": false
        },
        {
          "address": "0xd63070114470f685b75b74d60eec7c1113d33a3d",
          "topics": [
            "0x15c027cc4fd826d986cad358803439f7326d3aa4ed969ff90dbee4bc150f68e9"
          ],
          "data": "0x00000000000000000000000000000000000000000000000000002ee13f2f02b3",
          "blockHash": "0xb01bf52f7d0d0ef98df5d71767130702241a7b4ec1190f70567634d955df57c7",
          "blockNumber": "0x13c039a",
          "blockTimestamp": "0x66de681b",
          "transactionHash": "0x819c4c8187db6fe6b14dba65640f5694e1f11c17545cfded15c6ee989d8bed82",
          "transactionIndex": "0x77",
          "logIndex": "0x14c",
          "removed": false
        },
        {
          "address": "0x6ac25f85a8fa9a7d77b3f2165103fc0f09642b6a",
          "topics": [
            "0x6562511fab96c9d61fcca699b812b2d8084548a3ccc34b9e7ba471c913c5b48b"
          ],
          "data": "0x000000000000000000000000000000000000000000000000000000000000001d",
          "blockHash": "0xb01bf52f7d0d0ef98df5d71767130702241a7b4ec1190f70567634d955df57c7",
          "blockNumber": "0x13c039a",
          "blockTimestamp": "0x66de681b",
          "transactionHash": "0x819c4c8187db6fe6b14dba65640f5694e1f11c17545cfded15c6ee989d8bed82",
          "transactionIndex": "0x77",
          "logIndex": "0x14d",
          "removed": false
        },
        {
          "address": "0x6ac25f85a8fa9a7d77b3f2165103fc0f09642b6a",
          "topics": [
            "0x93744be23632b71c15fda59d4fcb485fc80f35677969b2262f752f3c26a12a82"
          ],
          "data": "0x000000000000000000000000d63070114470f685b75b74d60eec7c1113d33a3d00000000000000000000000000000000000000000000000000001a77fc08fecf00000000000000000000000000000000000000000000000000000164a179bc91",
          "blockHash": "0xb01bf52f7d0d0ef98df5d71767130702241a7b4ec1190f70567634d955df57c7",
          "blockNumber": "0x13c039a",
          "blockTimestamp": "0x66de681b",
          "transactionHash": "0x819c4c8187db6fe6b14dba65640f5694e1f11c17545cfded15c6ee989d8bed82",
          "transactionIndex": "0x77",
          "logIndex": "0x14e",
          "removed": false
        }
      ],
      "logsBloom": "0x00008000000000400000000000004080000002000000000000000080000000001000400000000000000000000000020000000800000000010000000020a44000000000400010000008000008a00000000000004800280000000000080000002000000000020000008000000020000801000080000004000010000010000800000008400000000008100008000000000000000000010000004020000000040400820000000020200000800000000000020000102004008000000000000000000821000002000000000001000020000000000000000008000000000000040020400010000011000000000000200001000009000000000000000000000040000000",
      "type": "0x0",
      "transactionHash": "0x819c4c8187db6fe6b14dba65640f5694e1f11c17545cfded15c6ee989d8bed82",
      "transactionIndex": "0x77",
      "blockHash": "0xb01bf52f7d0d0ef98df5d71767130702241a7b4ec1190f70567634d955df57c7",
      "blockNumber": "0x13c039a",
      "gasUsed": "0xd0e10",
      "effectiveGasPrice": "0x43dd553f",
      "from": "0xc49b5e5b9da66b9126c1a62e9761e6b2147de3e1",
      "to": "0x6ac25f85a8fa9a7d77b3f2165103fc0f09642b6a",
      "contractAddress": null
    },
    {
      "status": "0x1",
      "cumulativeGasUsed": "0xcbc21a",
      "logs": [
        {
          "address": "0xd63070114470f685b75b74d60eec7c1113d33a3d",
          "topics": [
            "0xf66f28b40975dbb933913542c7e6a0f50a1d0f20aa74ea6e0efe65ab616323ec"
          ],
          "data": "0x00000000000000000000000000000000000000000000000000002ee13f2f02b30000000000000000000000000000000000000000000000000000000000000000",
          "blockHash": "0xb01bf52f7d0d0ef98df5d71767130702241a7b4ec1190f70567634d955df57c7",
          "blockNumber": "0x13c039a",
          "blockTimestamp": "0x66de681b",
          "transactionHash": "0x3f259cb5d8c8e93111daf8b254aea1ec05cc05ceba816fa936aedf537cadd941",
          "transactionIndex": "0x78",
          "logIndex": "0x14f",
          "removed": false
        },
        {
          "address": "0xd63070114470f685b75b74d60eec7c1113d33a3d",
          "topics": [
            "0x15c027cc4fd826d986cad358803439f7326d3aa4ed969ff90dbee4bc150f68e9"
          ],
          "data": "0x00000000000000000000000000000000000000000000000000002ee13c6f1fe7",
          "blockHash": "0xb01bf52f7d0d0ef98df5d71767130702241a7b4ec1190f70567634d955df57c7",
          "blockNumber": "0x13c039a",
          "blockTimestamp": "0x66de681b",
          "transactionHash": "0x3f259cb5d8c8e93111daf8b254aea1ec05cc05ceba816fa936aedf537cadd941",
          "transactionIndex": "0x78",
          "logIndex": "0x150",
          "removed": false
        },
        {
          "address": "0xbbbbbbbbbb9cc5e90e3b3af64bdaf62c37eeffcb",
          "topics": [
            "0xa56fc0ad5702ec05ce63666221f796fb62437c32db1aa1aa075fc6484cf58fbf",
            "0x54efdee08e272e929034a8f26f7ca34b1ebe364b275391169b28c6d7db24dbc8",
            "0x000000000000000000000000d63070114470f685b75b74d60eec7c1113d33a3d",
            "0x000000000000000000000000d63070114470f685b75b74d60eec7c1113d33a3d"
          ],
          "data": "0x000000000000000000000000d63070114470f685b75b74d60eec7c1113d33a3d0000000000000000000000000000000000000000000000000000000002bfe2cc000000000000000000000000000000000000000000000000000029f472654b00",
          "blockHash": "0xb01bf52f7d0d0ef98df5d71767130702241a7b4ec1190f70567634d955df57c7",
          "blockNumber": "0x13c039a",
          "blockTimestamp": "0x66de681b",
          "transactionHash": "0x3f259cb5d8c8e93111daf8b254aea1ec05cc05ceba816fa936aedf537cadd941",
          "transactionIndex": "0x78",
          "logIndex": "0x151",
          "removed": false
        },
        {
          "address": "0xa0b86991c6218b36c1d19d4a2e9eb0ce3606eb48",
          "topics": [
            "0xddf252ad1be2c89b69c2b068fc378daa952ba7f163c4a11628f55a4df523b3ef",
            "0x000000000000000000000000bbbbbbbbbb9cc5e90e3b3af64bdaf62c37eeffcb",
            "0x000000000000000000000000d63070114470f685b75b74d60eec7c1113d33a3d"
          ],
          "data": "0x0000000000000000000000000000000000000000000000000000000002bfe2cc",
          "blockHash": "0xb01bf52f7d0d0ef98df5d71767130702241a7b4ec1190f70567634d955df57c7",
          "blockNumber": "0x13c039a",
          "blockTimestamp": "0x66de681b",
          "transactionHash": "0x3f259cb5d8c8e93111daf8b254aea1ec05cc05ceba816fa936aedf537cadd941",
          "transactionIndex": "0x78",
          "logIndex": "0x152",
          "removed": false
        },
        {
          "address": "0xd63070114470f685b75b74d60eec7c1113d33a3d",
          "topics": [
            "0xddf252ad1be2c89b69c2b068fc378daa952ba7f163c4a11628f55a4df523b3ef",
            "0x0000000000000000000000006ac25f85a8fa9a7d77b3f2165103fc0f09642b6a",
            "0x0000000000000000000000000000000000000000000000000000000000000000"
          ],
          "data": "0x00000000000000000000000000000000000000000000000278a12616745613e6",
          "blockHash": "0xb01bf52f7d0d0ef98df5d71767130702241a7b4ec1190f70567634d955df57c7",
          "blockNumber": "0x13c039a",
          "blockTimestamp": "0x66de681b",
          "transactionHash": "0x3f259cb5d8c8e93111daf8b254aea1ec05cc05ceba816fa936aedf537cadd941",
          "transactionIndex": "0x78",
          "logIndex": "0x153",
          "removed": false
        },
        {
          "address": "0xa0b86991c6218b36c1d19d4a2e9eb0ce3606eb48",
          "topics": [
            "0xddf252ad1be2c89b69c2b068fc378daa952ba7f163c4a11628f55a4df523b3ef",
            "0x000000000000000000000000d63070114470f685b75b74d60eec7c1113d33a3d",
            "0x0000000000000000000000006ac25f85a8fa9a7d77b3f2165103fc0f09642b6a"
          ],
          "data": "0x0000000000000000000000000000000000000000000000000000000002bfe2cc",
          "blockHash": "0xb01bf52f7d0d0ef98df5d71767130702241a7b4ec1190f70567634d955df57c7",
          "blockNumber": "0x13c039a",
          "blockTimestamp": "0x66de681b",
          "transactionHash": "0x3f259cb5d8c8e93111daf8b254aea1ec05cc05ceba816fa936aedf537cadd941",
          "transactionIndex": "0x78",
          "logIndex": "0x154",
          "removed": false
        },
        {
          "address": "0xd63070114470f685b75b74d60eec7c1113d33a3d",
          "topics": [
            "0xfbde797d201c681b91056529119e0b02407c7bb96a4a2c75c01fc9667232c8db",
            "0x0000000000000000000000006ac25f85a8fa9a7d77b3f2165103fc0f09642b6a",
            "0x0000000000000000000000006ac25f85a8fa9a7d77b3f2165103fc0f09642b6a",
            "0x0000000000000000000000006ac25f85a8fa9a7d77b3f2165103fc0f09642b6a"
          ],
          "data": "0x0000000000000000000000000000000000000000000000000000000002bfe2cc00000000000000000000000000000000000000000000000278a12616745613e6",
          "blockHash": "0xb01bf52f7d0d0ef98df5d71767130702241a7b4ec1190f70567634d955df57c7",
          "blockNumber": "0x13c039a",
          "blockTimestamp": "0x66de681b",
          "transactionHash": "0x3f259cb5d8c8e93111daf8b254aea1ec05cc05ceba816fa936aedf537cadd941",
          "transactionIndex": "0x78",
          "logIndex": "0x155",
          "removed": false
        },
        {
          "address": "0x6ac25f85a8fa9a7d77b3f2165103fc0f09642b6a",
          "topics": [
            "0x6828af310fc67fbe28c2fe710e266ceedadea989d0550bfe8a63ee9ac60bc10d"
          ],
          "data": "0x0000000000000000000000000000000000000000000000000000000002bfe2cd",
          "blockHash": "0xb01bf52f7d0d0ef98df5d71767130702241a7b4ec1190f70567634d955df57c7",
          "blockNumber": "0x13c039a",
          "blockTimestamp": "0x66de681b",
          "transactionHash": "0x3f259cb5d8c8e93111daf8b254aea1ec05cc05ceba816fa936aedf537cadd941",
          "transactionIndex": "0x78",
          "logIndex": "0x156",
          "removed": false
        },
        {
          "address": "0x09e52aa36484c20288d9c148458ea4da991118af",
          "topics": [
            "0x3be45e9daf74c4e9eae68351b88f6b505e5180bed5448609bf2b43a4360d52b7"
          ],
          "data": "0x0000000000000000000000006ac25f85a8fa9a7d77b3f2165103fc0f09642b6a0000000000000000000000000000000000000000000000000000000002bfe2cd",
          "blockHash": "0xb01bf52f7d0d0ef98df5d71767130702241a7b4ec1190f70567634d955df57c7",
          "blockNumber": "0x13c039a",
          "blockTimestamp": "0x66de681b",
          "transactionHash": "0x3f259cb5d8c8e93111daf8b254aea1ec05cc05ceba816fa936aedf537cadd941",
          "transactionIndex": "0x78",
          "logIndex": "0x157",
          "removed": false
        }
      ],
      "logsBloom": "0x00000000000000400000000000004080200002000000000000000000000000000000000000000000000000000000020000000804000000000000000000000000000000000110000008000008200000000000000000000000080000000000000000000000020000008100000000000801000000000000000010000010000800000008000000000008100000000000000000000000010000004020000000040400800000000020200000800000000000020000102004000000000000000000000021000002000000000000000020100000000000000000000000000000000020000000000001000000000000240000000000000000000000001000000040000000",
      "type": "0x0",
      "transactionHash": "0x3f259cb5d8c8e93111daf8b254aea1ec05cc05ceba816fa936aedf537cadd941",
      "transactionIndex": "0x78",
      "blockHash": "0xb01bf52f7d0d0ef98df5d71767130702241a7b4ec1190f70567634d955df57c7",
      "blockNumber": "0x13c039a",
      "gasUsed": "0x5bafe",
      "effectiveGasPrice": "0x43dd553f",
      "from": "0xc49b5e5b9da66b9126c1a62e9761e6b2147de3e1",
      "to": "0x09e52aa36484c20288d9c148458ea4da991118af",
      "contractAddress": null
    },
    {
      "status": "0x1",
      "cumulativeGasUsed": "0xccedcc",
      "logs": [
        {
          "address": "0xa0b86991c6218b36c1d19d4a2e9eb0ce3606eb48",
          "topics": [
            "0xddf252ad1be2c89b69c2b068fc378daa952ba7f163c4a11628f55a4df523b3ef",
            "0x0000000000000000000000006ac25f85a8fa9a7d77b3f2165103fc0f09642b6a",
            "0x00000000000000000000000009e52aa36484c20288d9c148458ea4da991118af"
          ],
          "data": "0x0000000000000000000000000000000000000000000000000000000002bfe2cc",
          "blockHash": "0xb01bf52f7d0d0ef98df5d71767130702241a7b4ec1190f70567634d955df57c7",
          "blockNumber": "0x13c039a",
          "blockTimestamp": "0x66de681b",
          "transactionHash": "0xe2e8086245e19541597f084123ab17821941aeae683a41203ace56076945f21c",
          "transactionIndex": "0x79",
          "logIndex": "0x158",
          "removed": false
        },
        {
          "address": "0x6ac25f85a8fa9a7d77b3f2165103fc0f09642b6a",
          "topics": [
            "0xd27cf5576b6fe9fc802924bbeffa3dae5cd1eedf51797e0440959aaca4fe68dc"
          ],
          "data": "0x000000000000000000000000a0b86991c6218b36c1d19d4a2e9eb0ce3606eb480000000000000000000000000000000000000000000000000000000002bfe2cc",
          "blockHash": "0xb01bf52f7d0d0ef98df5d71767130702241a7b4ec1190f70567634d955df57c7",
          "blockNumber": "0x13c039a",
          "blockTimestamp": "0x66de681b",
          "transactionHash": "0xe2e8086245e19541597f084123ab17821941aeae683a41203ace56076945f21c",
          "transactionIndex": "0x79",
          "logIndex": "0x159",
          "removed": false
        },
        {
          "address": "0x09e52aa36484c20288d9c148458ea4da991118af",
          "topics": [
            "0xe3506e43e16d2ad0ab199f9bebfff9c0a7e5071a6891101e5e3c2d0230e8f851"
          ],
          "data": "0x000000000000000000000000a0b86991c6218b36c1d19d4a2e9eb0ce3606eb480000000000000000000000000000000000000000000000000000000002bfe2cc0000000000000000000000006ac25f85a8fa9a7d77b3f2165103fc0f09642b6a",
          "blockHash": "0xb01bf52f7d0d0ef98df5d71767130702241a7b4ec1190f70567634d955df57c7",
          "blockNumber": "0x13c039a",
          "blockTimestamp": "0x66de681b",
          "transactionHash": "0xe2e8086245e19541597f084123ab17821941aeae683a41203ace56076945f21c",
          "transactionIndex": "0x79",
          "logIndex": "0x15a",
          "removed": false
        }
      ],
      "logsBloom": "0x00000000000000000000000000004000000000000000000000000000000000000000000000000000000000000000000000000800000000000000000000000000000000000000000008000008000000000000000000000000000000000000000000000000000000000000000000000000000000000000000000000010000800000000000000000000000020000000000000000000010000000000000000000000800000000080200000002001000000000000002000000000000000000000000000000402020000000000000020100000000000000000000010000000000000000000000000000040000000000000000000000000000000001000000000000000",
      "type": "0x0",
      "transactionHash": "0xe2e8086245e19541597f084123ab17821941aeae683a41203ace56076945f21c",
      "transactionIndex": "0x79",
      "blockHash": "0xb01bf52f7d0d0ef98df5d71767130702241a7b4ec1190f70567634d955df57c7",
      "blockNumber": "0x13c039a",
      "gasUsed": "0x12bb2",
      "effectiveGasPrice": "0x43dd553f",
      "from": "0xc49b5e5b9da66b9126c1a62e9761e6b2147de3e1",
      "to": "0x09e52aa36484c20288d9c148458ea4da991118af",
      "contractAddress": null
    },
    {
      "status": "0x1",
      "cumulativeGasUsed": "0xce0574",
      "logs": [
        {
          "address": "0xa0b86991c6218b36c1d19d4a2e9eb0ce3606eb48",
          "topics": [
            "0xddf252ad1be2c89b69c2b068fc378daa952ba7f163c4a11628f55a4df523b3ef",
            "0x00000000000000000000000009e52aa36484c20288d9c148458ea4da991118af",
            "0x000000000000000000000000790ac11183dde23163b307e3f7440f2460526957"
          ],
          "data": "0x0000000000000000000000000000000000000000000000000000000002bfe2cc",
          "blockHash": "0xb01bf52f7d0d0ef98df5d71767130702241a7b4ec1190f70567634d955df57c7",
          "blockNumber": "0x13c039a",
          "blockTimestamp": "0x66de681b",
          "transactionHash": "0x50d12acdff3b6e1903cb998c5701790daca7e8b0dec691e51ea781c7a37bf6bc",
          "transactionIndex": "0x7a",
          "logIndex": "0x15b",
          "removed": false
        },
        {
          "address": "0x09e52aa36484c20288d9c148458ea4da991118af",
          "topics": [
            "0x6726e5a5b6daf5db4cb05184cc812832104a3e35256d2077cecbfcbf1112a6fd"
          ],
          "data": "0x000000000000000000000000a0b86991c6218b36c1d19d4a2e9eb0ce3606eb480000000000000000000000000000000000000000000000000000000002bfe2cc000000000000000000000000790ac11183dde23163b307e3f7440f2460526957",
          "blockHash": "0xb01bf52f7d0d0ef98df5d71767130702241a7b4ec1190f70567634d955df57c7",
          "blockNumber": "0x13c039a",
          "blockTimestamp": "0x66de681b",
          "transactionHash": "0x50d12acdff3b6e1903cb998c5701790daca7e8b0dec691e51ea781c7a37bf6bc",
          "transactionIndex": "0x7a",
          "logIndex": "0x15c",
          "removed": false
        }
      ],
      "logsBloom": "0x00000000000000000000000000000000040000000000000000000000000000000000000000000000000002000000000000000800000000000000000000000000000000100000000008000008000000000000000000000000000000000000000000000000000000000000000000000000000000000000000000000010000000000020000000000000000000000000000000000000010000000000000000000000000000000080200000002000000400000000000000000000000000000000000000000002000000000000000020100000000000000000000000000000000000000000000000000000000000000000000000000000000000001000080000000000",
      "type": "0x0",
      "transactionHash": "0x50d12acdff3b6e1903cb998c5701790daca7e8b0dec691e51ea781c7a37bf6bc",
      "transactionIndex": "0x7a",
      "blockHash": "0xb01bf52f7d0d0ef98df5d71767130702241a7b4ec1190f70567634d955df57c7",
      "blockNumber": "0x13c039a",
      "gasUsed": "0x117a8",
      "effectiveGasPrice": "0x43dd553f",
      "from": "0xc49b5e5b9da66b9126c1a62e9761e6b2147de3e1",
      "to": "0x09e52aa36484c20288d9c148458ea4da991118af",
      "contractAddress": null
    }
  ],
  "libraries": [],
  "pending": [],
  "returns": {},
  "timestamp": 1725851682,
  "chain": 1,
  "commit": "fa4ea12"
}