{
  "transactions": [
    {
      "hash": "0x1c94f9f6fb5c38e5302ad1ef13fab6aeeb8a47061026154b5cfaada50336d35b",
      "transactionType": "CALL",
      "contractName": null,
      "contractAddress": "0x6ac25f85a8fa9a7d77b3f2165103fc0f09642b6a",
      "function": "settle(uint256)",
      "arguments": [
        "13"
      ],
      "transaction": {
        "from": "0xc49b5e5b9da66b9126c1a62e9761e6b2147de3e1",
        "to": "0x6ac25f85a8fa9a7d77b3f2165103fc0f09642b6a",
        "gas": "0x12183a",
        "value": "0x0",
        "input": "0x8df82800000000000000000000000000000000000000000000000000000000000000000d",
        "nonce": "0x55",
        "chainId": "0x1"
      },
      "additionalContracts": [],
      "isFixedGasLimit": false
    },
    {
      "hash": "0xa73c87347b03afcfacbd197ad2aa9a7260a8061136a2d1d032182c99d4fcb19f",
      "transactionType": "CALL",
      "contractName": null,
      "contractAddress": "0x09e52aa36484c20288d9c148458ea4da991118af",
      "function": "redeem(address,uint256)",
      "arguments": [
        "0x6ac25F85a8fA9a7D77B3f2165103Fc0F09642B6A",
        "12"
      ],
      "transaction": {
        "from": "0xc49b5e5b9da66b9126c1a62e9761e6b2147de3e1",
        "to": "0x09e52aa36484c20288d9c148458ea4da991118af",
        "gas": "0x837e8",
        "value": "0x0",
        "input": "0x1e9a69500000000000000000000000006ac25f85a8fa9a7d77b3f2165103fc0f09642b6a000000000000000000000000000000000000000000000000000000000000000c",
        "nonce": "0x56",
        "chainId": "0x1"
      },
      "additionalContracts": [],
      "isFixedGasLimit": false
    },
    {
      "hash": "0x3ad379b262b969f736f4324c9f9288516e5040f3548377a38141427d19bafb76",
      "transactionType": "CALL",
      "contractName": null,
      "contractAddress": "0x09e52aa36484c20288d9c148458ea4da991118af",
      "function": "withdrawFromStrategy(address,uint256)",
      "arguments": [
        "0x6ac25F85a8fA9a7D77B3f2165103Fc0F09642B6A",
        "11"
      ],
      "transaction": {
        "from": "0xc49b5e5b9da66b9126c1a62e9761e6b2147de3e1",
        "to": "0x09e52aa36484c20288d9c148458ea4da991118af",
        "gas": "0x19dc1",
        "value": "0x0",
        "input": "0xb53d09580000000000000000000000006ac25f85a8fa9a7d77b3f2165103fc0f09642b6a000000000000000000000000000000000000000000000000000000000000000b",
        "nonce": "0x57",
        "chainId": "0x1"
      },
      "additionalContracts": [],
      "isFixedGasLimit": false
    },
    {
      "hash": "0x73116de365e6ce3af03dfaf59b0491d0b47d95510fe0f86de54dee264c4c06a4",
      "transactionType": "CALL",
      "contractName": null,
      "contractAddress": "0x09e52aa36484c20288d9c148458ea4da991118af",
      "function": "withdrawToCEX(address,uint256,address)",
      "arguments": [
        "0xA0b86991c6218b36c1d19D4a2e9Eb0cE3606eB48",
        "11",
        "0x790ac11183ddE23163b307E3F7440F2460526957"
      ],
      "transaction": {
        "from": "0xc49b5e5b9da66b9126c1a62e9761e6b2147de3e1",
        "to": "0x09e52aa36484c20288d9c148458ea4da991118af",
        "gas": "0x125d0",
        "value": "0x0",
        "input": "0xd9bb89a8000000000000000000000000a0b86991c6218b36c1d19d4a2e9eb0ce3606eb48000000000000000000000000000000000000000000000000000000000000000b000000000000000000000000790ac11183dde23163b307e3f7440f2460526957",
        "nonce": "0x58",
        "chainId": "0x1"
      },
      "additionalContracts": [],
      "isFixedGasLimit": false
    }
  ],
  "receipts": [
    {
      "status": "0x1",
      "cumulativeGasUsed": "0xc8b0f3",
      "logs": [
        {
          "address": "0xd63070114470f685b75b74d60eec7c1113d33a3d",
          "topics": [
            "0xddf252ad1be2c89b69c2b068fc378daa952ba7f163c4a11628f55a4df523b3ef",
            "0x0000000000000000000000000000000000000000000000000000000000000000",
            "0x00000000000000000000000038afc3aa2c76b4ca1f8e1daba68e998e1f4782db"
          ],
          "data": "0x00000000000000000000000000000000000000000000000029abd0e5b1fd4bde",
          "blockHash": "0xabbb67490251bc7187f2cbdf1f346bda62d3fcf4ea45b60c68148cf59662f099",
          "blockNumber": "0x13cf3c8",
          "transactionHash": "0x1c94f9f6fb5c38e5302ad1ef13fab6aeeb8a47061026154b5cfaada50336d35b",
          "transactionIndex": "0x92",
          "logIndex": "0x151",
          "removed": false
        },
        {
          "address": "0xd63070114470f685b75b74d60eec7c1113d33a3d",
          "topics": [
            "0xf66f28b40975dbb933913542c7e6a0f50a1d0f20aa74ea6e0efe65ab616323ec"
          ],
          "data": "0x00000000000000000000000000000000000000000000000000002e2a0f83845a00000000000000000000000000000000000000000000000029abd0e5b1fd4bde",
          "blockHash": "0xabbb67490251bc7187f2cbdf1f346bda62d3fcf4ea45b60c68148cf59662f099",
          "blockNumber": "0x13cf3c8",
          "transactionHash": "0x1c94f9f6fb5c38e5302ad1ef13fab6aeeb8a47061026154b5cfaada50336d35b",
          "transactionIndex": "0x92",
          "logIndex": "0x152",
          "removed": false
        },
        {
          "address": "0xd63070114470f685b75b74d60eec7c1113d33a3d",
          "topics": [
            "0x15c027cc4fd826d986cad358803439f7326d3aa4ed969ff90dbee4bc150f68e9"
          ],
          "data": "0x00000000000000000000000000000000000000000000000000002e2a0f83845a",
          "blockHash": "0xabbb67490251bc7187f2cbdf1f346bda62d3fcf4ea45b60c68148cf59662f099",
          "blockNumber": "0x13cf3c8",
          "transactionHash": "0x1c94f9f6fb5c38e5302ad1ef13fab6aeeb8a47061026154b5cfaada50336d35b",
          "transactionIndex": "0x92",
          "logIndex": "0x153",
          "removed": false
        },
        {
          "address": "0xd63070114470f685b75b74d60eec7c1113d33a3d",
          "topics": [
            "0xddf252ad1be2c89b69c2b068fc378daa952ba7f163c4a11628f55a4df523b3ef",
            "0x0000000000000000000000006ac25f85a8fa9a7d77b3f2165103fc0f09642b6a",
            "0x0000000000000000000000000000000000000000000000000000000000000000"
          ],
          "data": "0x000000000000000000000000000000000000000000000000000000955989e9de",
          "blockHash": "0xabbb67490251bc7187f2cbdf1f346bda62d3fcf4ea45b60c68148cf59662f099",
          "blockNumber": "0x13cf3c8",
          "transactionHash": "0x1c94f9f6fb5c38e5302ad1ef13fab6aeeb8a47061026154b5cfaada50336d35b",
          "transactionIndex": "0x92",
          "logIndex": "0x154",
          "removed": false
        },
        {
          "address": "0xa0b86991c6218b36c1d19d4a2e9eb0ce3606eb48",
          "topics": [
            "0xddf252ad1be2c89b69c2b068fc378daa952ba7f163c4a11628f55a4df523b3ef",
            "0x000000000000000000000000d63070114470f685b75b74d60eec7c1113d33a3d",
            "0x000000000000000000000000c49b5e5b9da66b9126c1a62e9761e6b2147de3e1"
          ],
          "data": "0x0000000000000000000000000000000000000000000000000000000000000000",
          "blockHash": "0xabbb67490251bc7187f2cbdf1f346bda62d3fcf4ea45b60c68148cf59662f099",
          "blockNumber": "0x13cf3c8",
          "transactionHash": "0x1c94f9f6fb5c38e5302ad1ef13fab6aeeb8a47061026154b5cfaada50336d35b",
          "transactionIndex": "0x92",
          "logIndex": "0x155",
          "removed": false
        },
        {
          "address": "0xd63070114470f685b75b74d60eec7c1113d33a3d",
          "topics": [
            "0xfbde797d201c681b91056529119e0b02407c7bb96a4a2c75c01fc9667232c8db",
            "0x0000000000000000000000006ac25f85a8fa9a7d77b3f2165103fc0f09642b6a",
            "0x000000000000000000000000c49b5e5b9da66b9126c1a62e9761e6b2147de3e1",
            "0x0000000000000000000000006ac25f85a8fa9a7d77b3f2165103fc0f09642b6a"
          ],
          "data": "0x0000000000000000000000000000000000000000000000000000000000000000000000000000000000000000000000000000000000000000000000955989e9de",
          "blockHash": "0xabbb67490251bc7187f2cbdf1f346bda62d3fcf4ea45b60c68148cf59662f099",
          "blockNumber": "0x13cf3c8",
          "transactionHash": "0x1c94f9f6fb5c38e5302ad1ef13fab6aeeb8a47061026154b5cfaada50336d35b",
          "transactionIndex": "0x92",
          "logIndex": "0x156",
          "removed": false
        },
        {
          "address": "0xd63070114470f685b75b74d60eec7c1113d33a3d",
          "topics": [
            "0xf66f28b40975dbb933913542c7e6a0f50a1d0f20aa74ea6e0efe65ab616323ec"
          ],
          "data": "0x00000000000000000000000000000000000000000000000000002e2a0f83845a0000000000000000000000000000000000000000000000000000000000000000",
          "blockHash": "0xabbb67490251bc7187f2cbdf1f346bda62d3fcf4ea45b60c68148cf59662f099",
          "blockNumber": "0x13cf3c8",
          "transactionHash": "0x1c94f9f6fb5c38e5302ad1ef13fab6aeeb8a47061026154b5cfaada50336d35b",
          "transactionIndex": "0x92",
          "logIndex": "0x157",
          "removed": false
        },
        {
          "address": "0xd63070114470f685b75b74d60eec7c1113d33a3d",
          "topics": [
            "0x15c027cc4fd826d986cad358803439f7326d3aa4ed969ff90dbee4bc150f68e9"
          ],
          "data": "0x00000000000000000000000000000000000000000000000000002e2a0f83844e",
          "blockHash": "0xabbb67490251bc7187f2cbdf1f346bda62d3fcf4ea45b60c68148cf59662f099",
          "blockNumber": "0x13cf3c8",
          "transactionHash": "0x1c94f9f6fb5c38e5302ad1ef13fab6aeeb8a47061026154b5cfaada50336d35b",
          "transactionIndex": "0x92",
          "logIndex": "0x158",
          "removed": false
        },
        {
          "address": "0x870ac11d48b15db9a138cf899d20f13f79ba00bc",
          "topics": [
            "0x7120161a7b3d31251e01294ab351ef15a41b91659a36032e4641bb89b121e321",
            "0x3a85e619751152991742810df6ec69ce473daef99e28a64ab2340d7b7ccfee49"
          ],
          "data": "0x000000000000000000000000000000000000000000000000000000008f96be81000000000000000000000000000000000000000000000000000000005c491c12",
          "blockHash": "0xabbb67490251bc7187f2cbdf1f346bda62d3fcf4ea45b60c68148cf59662f099",
          "blockNumber": "0x13cf3c8",
          "transactionHash": "0x1c94f9f6fb5c38e5302ad1ef13fab6aeeb8a47061026154b5cfaada50336d35b",
          "transactionIndex": "0x92",
          "logIndex": "0x159",
          "removed": false
        },
        {
          "address": "0xbbbbbbbbbb9cc5e90e3b3af64bdaf62c37eeffcb",
          "topics": [
            "0x9d9bd501d0657d7dfe415f779a620a62b78bc508ddc0891fbbd8b7ac0f8fce87",
            "0x3a85e619751152991742810df6ec69ce473daef99e28a64ab2340d7b7ccfee49"
          ],
          "data": "0x000000000000000000000000000000000000000000000000000000008f96be810000000000000000000000000000000000000000000000000000000001a9b4090000000000000000000000000000000000000000000000000000000000000000",
          "blockHash": "0xabbb67490251bc7187f2cbdf1f346bda62d3fcf4ea45b60c68148cf59662f099",
          "blockNumber": "0x13cf3c8",
          "transactionHash": "0x1c94f9f6fb5c38e5302ad1ef13fab6aeeb8a47061026154b5cfaada50336d35b",
          "transactionIndex": "0x92",
          "logIndex": "0x15a",
          "removed": false
        },
        {
          "address": "0xbbbbbbbbbb9cc5e90e3b3af64bdaf62c37eeffcb",
          "topics": [
            "0xa56fc0ad5702ec05ce63666221f796fb62437c32db1aa1aa075fc6484cf58fbf",
            "0x3a85e619751152991742810df6ec69ce473daef99e28a64ab2340d7b7ccfee49",
            "0x000000000000000000000000d63070114470f685b75b74d60eec7c1113d33a3d",
            "0x000000000000000000000000d63070114470f685b75b74d60eec7c1113d33a3d"
          ],
          "data": "0x000000000000000000000000d63070114470f685b75b74d60eec7c1113d33a3d000000000000000000000000000000000000000000000000000000000000000c0000000000000000000000000000000000000000000000000000000000af3143",
          "blockHash": "0xabbb67490251bc7187f2cbdf1f346bda62d3fcf4ea45b60c68148cf59662f099",
          "blockNumber": "0x13cf3c8",
          "transactionHash": "0x1c94f9f6fb5c38e5302ad1ef13fab6aeeb8a47061026154b5cfaada50336d35b",
          "transactionIndex": "0x92",
          "logIndex": "0x15b",
          "removed": false
        },
        {
          "address": "0xa0b86991c6218b36c1d19d4a2e9eb0ce3606eb48",
          "topics": [
            "0xddf252ad1be2c89b69c2b068fc378daa952ba7f163c4a11628f55a4df523b3ef",
            "0x000000000000000000000000bbbbbbbbbb9cc5e90e3b3af64bdaf62c37eeffcb",
            "0x000000000000000000000000d63070114470f685b75b74d60eec7c1113d33a3d"
          ],
          "data": "0x000000000000000000000000000000000000000000000000000000000000000c",
          "blockHash": "0xabbb67490251bc7187f2cbdf1f346bda62d3fcf4ea45b60c68148cf59662f099",
          "blockNumber": "0x13cf3c8",
          "transactionHash": "0x1c94f9f6fb5c38e5302ad1ef13fab6aeeb8a47061026154b5cfaada50336d35b",
          "transactionIndex": "0x92",
          "logIndex": "0x15c",
          "removed": false
        },
        {
          "address": "0xd63070114470f685b75b74d60eec7c1113d33a3d",
          "topics": [
            "0xddf252ad1be2c89b69c2b068fc378daa952ba7f163c4a11628f55a4df523b3ef",
            "0x0000000000000000000000006ac25f85a8fa9a7d77b3f2165103fc0f09642b6a",
            "0x0000000000000000000000000000000000000000000000000000000000000000"
          ],
          "data": "0x00000000000000000000000000000000000000000000000000000b15a53c5b7b",
          "blockHash": "0xabbb67490251bc7187f2cbdf1f346bda62d3fcf4ea45b60c68148cf59662f099",
          "blockNumber": "0x13cf3c8",
          "transactionHash": "0x1c94f9f6fb5c38e5302ad1ef13fab6aeeb8a47061026154b5cfaada50336d35b",
          "transactionIndex": "0x92",
          "logIndex": "0x15d",
          "removed": false
        },
        {
          "address": "0xa0b86991c6218b36c1d19d4a2e9eb0ce3606eb48",
          "topics": [
            "0xddf252ad1be2c89b69c2b068fc378daa952ba7f163c4a11628f55a4df523b3ef",
            "0x000000000000000000000000d63070114470f685b75b74d60eec7c1113d33a3d",
            "0x0000000000000000000000006ac25f85a8fa9a7d77b3f2165103fc0f09642b6a"
          ],
          "data": "0x000000000000000000000000000000000000000000000000000000000000000c",
          "blockHash": "0xabbb67490251bc7187f2cbdf1f346bda62d3fcf4ea45b60c68148cf59662f099",
          "blockNumber": "0x13cf3c8",
          "transactionHash": "0x1c94f9f6fb5c38e5302ad1ef13fab6aeeb8a47061026154b5cfaada50336d35b",
          "transactionIndex": "0x92",
          "logIndex": "0x15e",
          "removed": false
        },
        {
          "address": "0xd63070114470f685b75b74d60eec7c1113d33a3d",
          "topics": [
            "0xfbde797d201c681b91056529119e0b02407c7bb96a4a2c75c01fc9667232c8db",
            "0x0000000000000000000000006ac25f85a8fa9a7d77b3f2165103fc0f09642b6a",
            "0x0000000000000000000000006ac25f85a8fa9a7d77b3f2165103fc0f09642b6a",
            "0x0000000000000000000000006ac25f85a8fa9a7d77b3f2165103fc0f09642b6a"
          ],
          "data": "0x000000000000000000000000000000000000000000000000000000000000000c00000000000000000000000000000000000000000000000000000b15a53c5b7b",
          "blockHash": "0xabbb67490251bc7187f2cbdf1f346bda62d3fcf4ea45b60c68148cf59662f099",
          "blockNumber": "0x13cf3c8",
          "transactionHash": "0x1c94f9f6fb5c38e5302ad1ef13fab6aeeb8a47061026154b5cfaada50336d35b",
          "transactionIndex": "0x92",
          "logIndex": "0x15f",
          "removed": false
        },
        {
          "address": "0xa0b86991c6218b36c1d19d4a2e9eb0ce3606eb48",
          "topics": [
            "0x8c5be1e5ebec7d5bd14f71427d1e84f3dd0314c0f7b2291e5b200ac8c7c3b925",
            "0x0000000000000000000000006ac25f85a8fa9a7d77b3f2165103fc0f09642b6a",
            "0x000000000000000000000000d63070114470f685b75b74d60eec7c1113d33a3d"
          ],
          "data": "0x000000000000000000000000000000000000000000000000000000000000000c",
          "blockHash": "0xabbb67490251bc7187f2cbdf1f346bda62d3fcf4ea45b60c68148cf59662f099",
          "blockNumber": "0x13cf3c8",
          "transactionHash": "0x1c94f9f6fb5c38e5302ad1ef13fab6aeeb8a47061026154b5cfaada50336d35b",
          "transactionIndex": "0x92",
          "logIndex": "0x160",
          "removed": false
        },
        {
          "address": "0xd63070114470f685b75b74d60eec7c1113d33a3d",
          "topics": [
            "0xf66f28b40975dbb933913542c7e6a0f50a1d0f20aa74ea6e0efe65ab616323ec"
          ],
          "data": "0x00000000000000000000000000000000000000000000000000002e2a0f83844e0000000000000000000000000000000000000000000000000000000000000000",
          "blockHash": "0xabbb67490251bc7187f2cbdf1f346bda62d3fcf4ea45b60c68148cf59662f099",
          "blockNumber": "0x13cf3c8",
          "transactionHash": "0x1c94f9f6fb5c38e5302ad1ef13fab6aeeb8a47061026154b5cfaada50336d35b",
          "transactionIndex": "0x92",
          "logIndex": "0x161",
          "removed": false
        },
        {
          "address": "0xa0b86991c6218b36c1d19d4a2e9eb0ce3606eb48",
          "topics": [
            "0xddf252ad1be2c89b69c2b068fc378daa952ba7f163c4a11628f55a4df523b3ef",
            "0x0000000000000000000000006ac25f85a8fa9a7d77b3f2165103fc0f09642b6a",
            "0x000000000000000000000000d63070114470f685b75b74d60eec7c1113d33a3d"
          ],
          "data": "0x000000000000000000000000000000000000000000000000000000000000000c",
          "blockHash": "0xabbb67490251bc7187f2cbdf1f346bda62d3fcf4ea45b60c68148cf59662f099",
          "blockNumber": "0x13cf3c8",
          "transactionHash": "0x1c94f9f6fb5c38e5302ad1ef13fab6aeeb8a47061026154b5cfaada50336d35b",
          "transactionIndex": "0x92",
          "logIndex": "0x162",
          "removed": false
        },
        {
          "address": "0xd63070114470f685b75b74d60eec7c1113d33a3d",
          "topics": [
            "0xddf252ad1be2c89b69c2b068fc378daa952ba7f163c4a11628f55a4df523b3ef",
            "0x0000000000000000000000000000000000000000000000000000000000000000",
            "0x0000000000000000000000006ac25f85a8fa9a7d77b3f2165103fc0f09642b6a"
          ],
          "data": "0x00000000000000000000000000000000000000000000000000000ac539f218a0",
          "blockHash": "0xabbb67490251bc7187f2cbdf1f346bda62d3fcf4ea45b60c68148cf59662f099",
          "blockNumber": "0x13cf3c8",
          "transactionHash": "0x1c94f9f6fb5c38e5302ad1ef13fab6aeeb8a47061026154b5cfaada50336d35b",
          "transactionIndex": "0x92",
          "logIndex": "0x163",
          "removed": false
        },
        {
          "address": "0xd63070114470f685b75b74d60eec7c1113d33a3d",
          "topics": [
            "0xdcbc1c05240f31ff3ad067ef1ee35ce4997762752e3a095284754544f4c709d7",
            "0x0000000000000000000000006ac25f85a8fa9a7d77b3f2165103fc0f09642b6a",
            "0x0000000000000000000000006ac25f85a8fa9a7d77b3f2165103fc0f09642b6a"
          ],
          "data": "0x000000000000000000000000000000000000000000000000000000000000000c00000000000000000000000000000000000000000000000000000ac539f218a0",
          "blockHash": "0xabbb67490251bc7187f2cbdf1f346bda62d3fcf4ea45b60c68148cf59662f099",
          "blockNumber": "0x13cf3c8",
          "transactionHash": "0x1c94f9f6fb5c38e5302ad1ef13fab6aeeb8a47061026154b5cfaada50336d35b",
          "transactionIndex": "0x92",
          "logIndex": "0x164",
          "removed": false
        },
        {
          "address": "0x870ac11d48b15db9a138cf899d20f13f79ba00bc",
          "topics": [
            "0x7120161a7b3d31251e01294ab351ef15a41b91659a36032e4641bb89b121e321",
            "0xb48bb53f0f2690c71e8813f2dc7ed6fca9ac4b0ace3faa37b4a8e5ece38fa1a2"
          ],
          "data": "0x00000000000000000000000000000000000000000000000000000000a742083a00000000000000000000000000000000000000000000000000000000a903945a",
          "blockHash": "0xabbb67490251bc7187f2cbdf1f346bda62d3fcf4ea45b60c68148cf59662f099",
          "blockNumber": "0x13cf3c8",
          "transactionHash": "0x1c94f9f6fb5c38e5302ad1ef13fab6aeeb8a47061026154b5cfaada50336d35b",
          "transactionIndex": "0x92",
          "logIndex": "0x165",
          "removed": false
        },
        {
          "address": "0xbbbbbbbbbb9cc5e90e3b3af64bdaf62c37eeffcb",
          "topics": [
            "0x9d9bd501d0657d7dfe415f779a620a62b78bc508ddc0891fbbd8b7ac0f8fce87",
            "0xb48bb53f0f2690c71e8813f2dc7ed6fca9ac4b0ace3faa37b4a8e5ece38fa1a2"
          ],
          "data": "0x00000000000000000000000000000000000000000000000000000000a742083a000000000000000000000000000000000000000000000000000000000159d04b0000000000000000000000000000000000000000000000000000000000000000",
          "blockHash": "0xabbb67490251bc7187f2cbdf1f346bda62d3fcf4ea45b60c68148cf59662f099",
          "blockNumber": "0x13cf3c8",
          "transactionHash": "0x1c94f9f6fb5c38e5302ad1ef13fab6aeeb8a47061026154b5cfaada50336d35b",
          "transactionIndex": "0x92",
          "logIndex": "0x166",
          "removed": false
        },
        {
          "address": "0x870ac11d48b15db9a138cf899d20f13f79ba00bc",
          "topics": [
            "0x7120161a7b3d31251e01294ab351ef15a41b91659a36032e4641bb89b121e321",
            "0x864c9b82eb066ae2c038ba763dfc0221001e62fc40925530056349633eb0a259"
          ],
          "data": "0x0000000000000000000000000000000000000000000000000000000097722976000000000000000000000000000000000000000000000000000000006e8e7daf",
          "blockHash": "0xabbb67490251bc7187f2cbdf1f346bda62d3fcf4ea45b60c68148cf59662f099",
          "blockNumber": "0x13cf3c8",
          "transactionHash": "0x1c94f9f6fb5c38e5302ad1ef13fab6aeeb8a47061026154b5cfaada50336d35b",
          "transactionIndex": "0x92",
          "logIndex": "0x167",
          "removed": false
        },
        {
          "address": "0xbbbbbbbbbb9cc5e90e3b3af64bdaf62c37eeffcb",
          "topics": [
            "0x9d9bd501d0657d7dfe415f779a620a62b78bc508ddc0891fbbd8b7ac0f8fce87",
            "0x864c9b82eb066ae2c038ba763dfc0221001e62fc40925530056349633eb0a259"
          ],
          "data": "0x0000000000000000000000000000000000000000000000000000000097722976000000000000000000000000000000000000000000000000000000000113f5410000000000000000000000000000000000000000000000000000000000000000",
          "blockHash": "0xabbb67490251bc7187f2cbdf1f346bda62d3fcf4ea45b60c68148cf59662f099",
          "blockNumber": "0x13cf3c8",
          "transactionHash": "0x1c94f9f6fb5c38e5302ad1ef13fab6aeeb8a47061026154b5cfaada50336d35b",
          "transactionIndex": "0x92",
          "logIndex": "0x168",
          "removed": false
        },
        {
          "address": "0xbbbbbbbbbb9cc5e90e3b3af64bdaf62c37eeffcb",
          "topics": [
            "0xedf8870433c83823eb071d3df1caa8d008f12f6440918c20d75a3602cda30fe0",
            "0x3a85e619751152991742810df6ec69ce473daef99e28a64ab2340d7b7ccfee49",
            "0x000000000000000000000000d63070114470f685b75b74d60eec7c1113d33a3d",
            "0x000000000000000000000000d63070114470f685b75b74d60eec7c1113d33a3d"
          ],
          "data": "0x000000000000000000000000000000000000000000000000000000000000000c0000000000000000000000000000000000000000000000000000000000af3142",
          "blockHash": "0xabbb67490251bc7187f2cbdf1f346bda62d3fcf4ea45b60c68148cf59662f099",
          "blockNumber": "0x13cf3c8",
          "transactionHash": "0x1c94f9f6fb5c38e5302ad1ef13fab6aeeb8a47061026154b5cfaada50336d35b",
          "transactionIndex": "0x92",
          "logIndex": "0x169",
          "removed": false
        },
        {
          "address": "0xa0b86991c6218b36c1d19d4a2e9eb0ce3606eb48",
          "topics": [
            "0xddf252ad1be2c89b69c2b068fc378daa952ba7f163c4a11628f55a4df523b3ef",
            "0x000000000000000000000000d63070114470f685b75b74d60eec7c1113d33a3d",
            "0x000000000000000000000000bbbbbbbbbb9cc5e90e3b3af64bdaf62c37eeffcb"
          ],
          "data": "0x000000000000000000000000000000000000000000000000000000000000000c",
          "blockHash": "0xabbb67490251bc7187f2cbdf1f346bda62d3fcf4ea45b60c68148cf59662f099",
          "blockNumber": "0x13cf3c8",
          "transactionHash": "0x1c94f9f6fb5c38e5302ad1ef13fab6aeeb8a47061026154b5cfaada50336d35b",
          "transactionIndex": "0x92",
          "logIndex": "0x16a",
          "removed": false
        },
        {
          "address": "0xd63070114470f685b75b74d60eec7c1113d33a3d",
          "topics": [
            "0x15c027cc4fd826d986cad358803439f7326d3aa4ed969ff90dbee4bc150f68e9"
          ],
          "data": "0x00000000000000000000000000000000000000000000000000002e2a0f83845a",
          "blockHash": "0xabbb67490251bc7187f2cbdf1f346bda62d3fcf4ea45b60c68148cf59662f099",
          "blockNumber": "0x13cf3c8",
          "transactionHash": "0x1c94f9f6fb5c38e5302ad1ef13fab6aeeb8a47061026154b5cfaada50336d35b",
          "transactionIndex": "0x92",
          "logIndex": "0x16b",
          "removed": false
        },
        {
          "address": "0x6ac25f85a8fa9a7d77b3f2165103fc0f09642b6a",
          "topics": [
            "0x6562511fab96c9d61fcca699b812b2d8084548a3ccc34b9e7ba471c913c5b48b"
          ],
          "data": "0x000000000000000000000000000000000000000000000000000000000000000c",
          "blockHash": "0xabbb67490251bc7187f2cbdf1f346bda62d3fcf4ea45b60c68148cf59662f099",
          "blockNumber": "0x13cf3c8",
          "transactionHash": "0x1c94f9f6fb5c38e5302ad1ef13fab6aeeb8a47061026154b5cfaada50336d35b",
          "transactionIndex": "0x92",
          "logIndex": "0x16c",
          "removed": false
        },
        {
          "address": "0x6ac25f85a8fa9a7d77b3f2165103fc0f09642b6a",
          "topics": [
            "0x93744be23632b71c15fda59d4fcb485fc80f35677969b2262f752f3c26a12a82"
          ],
          "data": "0x000000000000000000000000d63070114470f685b75b74d60eec7c1113d33a3d00000000000000000000000000000000000000000000000000000b15a53c5b7b000000000000000000000000000000000000000000000000000000955989e9de",
          "blockHash": "0xabbb67490251bc7187f2cbdf1f346bda62d3fcf4ea45b60c68148cf59662f099",
          "blockNumber": "0x13cf3c8",
          "transactionHash": "0x1c94f9f6fb5c38e5302ad1ef13fab6aeeb8a47061026154b5cfaada50336d35b",
          "transactionIndex": "0x92",
          "logIndex": "0x16d",
          "removed": false
        }
      ],
      "logsBloom": "0x00008000000000400000000000004080000002000000000000000080000000000000400000000000000000000000020000000800000000010000000020a44000200000400010000008000008a00000000000004800280000000000080000002000000000020000000000000020000801000080000004000410000010000820000008404000000008000008000000000000000000010080004020000000040400820000000020200000000000000000020000102004008000000000000000000821000002000000000001000020000000000000000008000000000010000020400010000011000000000000200001000001000000000000000000000040000000",
      "type": "0x0",
      "transactionHash": "0x1c94f9f6fb5c38e5302ad1ef13fab6aeeb8a47061026154b5cfaada50336d35b",
      "transactionIndex": "0x92",
      "blockHash": "0xabbb67490251bc7187f2cbdf1f346bda62d3fcf4ea45b60c68148cf59662f099",
      "blockNumber": "0x13cf3c8",
      "gasUsed": "0xd19a7",
      "effectiveGasPrice": "0x4b6f432f1",
      "from": "0xc49b5e5b9da66b9126c1a62e9761e6b2147de3e1",
      "to": "0x6ac25f85a8fa9a7d77b3f2165103fc0f09642b6a",
      "contractAddress": null
    },
    {
      "status": "0x1",
      "cumulativeGasUsed": "0xce4f85",
      "logs": [
        {
          "address": "0xd63070114470f685b75b74d60eec7c1113d33a3d",
          "topics": [
            "0xf66f28b40975dbb933913542c7e6a0f50a1d0f20aa74ea6e0efe65ab616323ec"
          ],
          "data": "0x00000000000000000000000000000000000000000000000000002e2a0f83845a0000000000000000000000000000000000000000000000000000000000000000",
          "blockHash": "0xabbb67490251bc7187f2cbdf1f346bda62d3fcf4ea45b60c68148cf59662f099",
          "blockNumber": "0x13cf3c8",
          "transactionHash": "0xa73c87347b03afcfacbd197ad2aa9a7260a8061136a2d1d032182c99d4fcb19f",
          "transactionIndex": "0x93",
          "logIndex": "0x16e",
          "removed": false
        },
        {
          "address": "0xd63070114470f685b75b74d60eec7c1113d33a3d",
          "topics": [
            "0x15c027cc4fd826d986cad358803439f7326d3aa4ed969ff90dbee4bc150f68e9"
          ],
          "data": "0x00000000000000000000000000000000000000000000000000002e2a0f83844f",
          "blockHash": "0xabbb67490251bc7187f2cbdf1f346bda62d3fcf4ea45b60c68148cf59662f099",
          "blockNumber": "0x13cf3c8",
          "transactionHash": "0xa73c87347b03afcfacbd197ad2aa9a7260a8061136a2d1d032182c99d4fcb19f",
          "transactionIndex": "0x93",
          "logIndex": "0x16f",
          "removed": false
        },
        {
          "address": "0xbbbbbbbbbb9cc5e90e3b3af64bdaf62c37eeffcb",
          "topics": [
            "0xa56fc0ad5702ec05ce63666221f796fb62437c32db1aa1aa075fc6484cf58fbf",
            "0x3a85e619751152991742810df6ec69ce473daef99e28a64ab2340d7b7ccfee49",
            "0x000000000000000000000000d63070114470f685b75b74d60eec7c1113d33a3d",
            "0x000000000000000000000000d63070114470f685b75b74d60eec7c1113d33a3d"
          ],
          "data": "0x000000000000000000000000d63070114470f685b75b74d60eec7c1113d33a3d000000000000000000000000000000000000000000000000000000000000000b0000000000000000000000000000000000000000000000000000000000a097d3",
          "blockHash": "0xabbb67490251bc7187f2cbdf1f346bda62d3fcf4ea45b60c68148cf59662f099",
          "blockNumber": "0x13cf3c8",
          "transactionHash": "0xa73c87347b03afcfacbd197ad2aa9a7260a8061136a2d1d032182c99d4fcb19f",
          "transactionIndex": "0x93",
          "logIndex": "0x170",
          "removed": false
        },
        {
          "address": "0xa0b86991c6218b36c1d19d4a2e9eb0ce3606eb48",
          "topics": [
            "0xddf252ad1be2c89b69c2b068fc378daa952ba7f163c4a11628f55a4df523b3ef",
            "0x000000000000000000000000bbbbbbbbbb9cc5e90e3b3af64bdaf62c37eeffcb",
            "0x000000000000000000000000d63070114470f685b75b74d60eec7c1113d33a3d"
          ],
          "data": "0x000000000000000000000000000000000000000000000000000000000000000b",
          "blockHash": "0xabbb67490251bc7187f2cbdf1f346bda62d3fcf4ea45b60c68148cf59662f099",
          "blockNumber": "0x13cf3c8",
          "transactionHash": "0xa73c87347b03afcfacbd197ad2aa9a7260a8061136a2d1d032182c99d4fcb19f",
          "transactionIndex": "0x93",
          "logIndex": "0x171",
          "removed": false
        },
        {
          "address": "0xd63070114470f685b75b74d60eec7c1113d33a3d",
          "topics": [
            "0xddf252ad1be2c89b69c2b068fc378daa952ba7f163c4a11628f55a4df523b3ef",
            "0x0000000000000000000000006ac25f85a8fa9a7d77b3f2165103fc0f09642b6a",
            "0x0000000000000000000000000000000000000000000000000000000000000000"
          ],
          "data": "0x00000000000000000000000000000000000000000000000000000ac539f218a0",
          "blockHash": "0xabbb67490251bc7187f2cbdf1f346bda62d3fcf4ea45b60c68148cf59662f099",
          "blockNumber": "0x13cf3c8",
          "transactionHash": "0xa73c87347b03afcfacbd197ad2aa9a7260a8061136a2d1d032182c99d4fcb19f",
          "transactionIndex": "0x93",
          "logIndex": "0x172",
          "removed": false
        },
        {
          "address": "0xa0b86991c6218b36c1d19d4a2e9eb0ce3606eb48",
          "topics": [
            "0xddf252ad1be2c89b69c2b068fc378daa952ba7f163c4a11628f55a4df523b3ef",
            "0x000000000000000000000000d63070114470f685b75b74d60eec7c1113d33a3d",
            "0x0000000000000000000000006ac25f85a8fa9a7d77b3f2165103fc0f09642b6a"
          ],
          "data": "0x000000000000000000000000000000000000000000000000000000000000000b",
          "blockHash": "0xabbb67490251bc7187f2cbdf1f346bda62d3fcf4ea45b60c68148cf59662f099",
          "blockNumber": "0x13cf3c8",
          "transactionHash": "0xa73c87347b03afcfacbd197ad2aa9a7260a8061136a2d1d032182c99d4fcb19f",
          "transactionIndex": "0x93",
          "logIndex": "0x173",
          "removed": false
        },
        {
          "address": "0xd63070114470f685b75b74d60eec7c1113d33a3d",
          "topics": [
            "0xfbde797d201c681b91056529119e0b02407c7bb96a4a2c75c01fc9667232c8db",
            "0x0000000000000000000000006ac25f85a8fa9a7d77b3f2165103fc0f09642b6a",
            "0x0000000000000000000000006ac25f85a8fa9a7d77b3f2165103fc0f09642b6a",
            "0x0000000000000000000000006ac25f85a8fa9a7d77b3f2165103fc0f09642b6a"
          ],
          "data": "0x000000000000000000000000000000000000000000000000000000000000000b00000000000000000000000000000000000000000000000000000ac539f218a0",
          "blockHash": "0xabbb67490251bc7187f2cbdf1f346bda62d3fcf4ea45b60c68148cf59662f099",
          "blockNumber": "0x13cf3c8",
          "transactionHash": "0xa73c87347b03afcfacbd197ad2aa9a7260a8061136a2d1d032182c99d4fcb19f",
          "transactionIndex": "0x93",
          "logIndex": "0x174",
          "removed": false
        },
        {
          "address": "0x6ac25f85a8fa9a7d77b3f2165103fc0f09642b6a",
          "topics": [
            "0x6828af310fc67fbe28c2fe710e266ceedadea989d0550bfe8a63ee9ac60bc10d"
          ],
          "data": "0x000000000000000000000000000000000000000000000000000000000000000c",
          "blockHash": "0xabbb67490251bc7187f2cbdf1f346bda62d3fcf4ea45b60c68148cf59662f099",
          "blockNumber": "0x13cf3c8",
          "transactionHash": "0xa73c87347b03afcfacbd197ad2aa9a7260a8061136a2d1d032182c99d4fcb19f",
          "transactionIndex": "0x93",
          "logIndex": "0x175",
          "removed": false
        },
        {
          "address": "0x09e52aa36484c20288d9c148458ea4da991118af",
          "topics": [
            "0x3be45e9daf74c4e9eae68351b88f6b505e5180bed5448609bf2b43a4360d52b7"
          ],
          "data": "0x0000000000000000000000006ac25f85a8fa9a7d77b3f2165103fc0f09642b6a000000000000000000000000000000000000000000000000000000000000000c",
          "blockHash": "0xabbb67490251bc7187f2cbdf1f346bda62d3fcf4ea45b60c68148cf59662f099",
          "blockNumber": "0x13cf3c8",
          "transactionHash": "0xa73c87347b03afcfacbd197ad2aa9a7260a8061136a2d1d032182c99d4fcb19f",
          "transactionIndex": "0x93",
          "logIndex": "0x176",
          "removed": false
        }
      ],
      "logsBloom": "0x00000000000000400000000000004080200002000000000000000000000000000000000000000000000000000000020000000804000000000000000000000000000000000110000008000008200000000000000000000000080000000000000000000000020000000100000000000801000000000000000010000010000820000008004000000008000000000000000000000000010000004020000000040400800000000020200000000000000000020000102004000000000000000000000021000002000000000000000020100000000000000000000000000010000020000000000001000000000000240000000000000000000000001000000040000000",
      "type": "0x0",
      "transactionHash": "0xa73c87347b03afcfacbd197ad2aa9a7260a8061136a2d1d032182c99d4fcb19f",
      "transactionIndex": "0x93",
      "blockHash": "0xabbb67490251bc7187f2cbdf1f346bda62d3fcf4ea45b60c68148cf59662f099",
      "blockNumber": "0x13cf3c8",
      "gasUsed": "0x59e92",
      "effectiveGasPrice": "0x4b6f432f1",
      "from": "0xc49b5e5b9da66b9126c1a62e9761e6b2147de3e1",
      "to": "0x09e52aa36484c20288d9c148458ea4da991118af",
      "contractAddress": null
    },
    {
      "status": "0x1",
      "cumulativeGasUsed": "0xcf7b13",
      "logs": [
        {
          "address": "0xa0b86991c6218b36c1d19d4a2e9eb0ce3606eb48",
          "topics": [
            "0xddf252ad1be2c89b69c2b068fc378daa952ba7f163c4a11628f55a4df523b3ef",
            "0x0000000000000000000000006ac25f85a8fa9a7d77b3f2165103fc0f09642b6a",
            "0x00000000000000000000000009e52aa36484c20288d9c148458ea4da991118af"
          ],
          "data": "0x000000000000000000000000000000000000000000000000000000000000000b",
          "blockHash": "0xabbb67490251bc7187f2cbdf1f346bda62d3fcf4ea45b60c68148cf59662f099",
          "blockNumber": "0x13cf3c8",
          "transactionHash": "0x3ad379b262b969f736f4324c9f9288516e5040f3548377a38141427d19bafb76",
          "transactionIndex": "0x94",
          "logIndex": "0x177",
          "removed": false
        },
        {
          "address": "0x6ac25f85a8fa9a7d77b3f2165103fc0f09642b6a",
          "topics": [
            "0xd27cf5576b6fe9fc802924bbeffa3dae5cd1eedf51797e0440959aaca4fe68dc"
          ],
          "data": "0x000000000000000000000000a0b86991c6218b36c1d19d4a2e9eb0ce3606eb48000000000000000000000000000000000000000000000000000000000000000b",
          "blockHash": "0xabbb67490251bc7187f2cbdf1f346bda62d3fcf4ea45b60c68148cf59662f099",
          "blockNumber": "0x13cf3c8",
          "transactionHash": "0x3ad379b262b969f736f4324c9f9288516e5040f3548377a38141427d19bafb76",
          "transactionIndex": "0x94",
          "logIndex": "0x178",
          "removed": false
        },
        {
          "address": "0x09e52aa36484c20288d9c148458ea4da991118af",
          "topics": [
            "0xe3506e43e16d2ad0ab199f9bebfff9c0a7e5071a6891101e5e3c2d0230e8f851"
          ],
          "data": "0x000000000000000000000000a0b86991c6218b36c1d19d4a2e9eb0ce3606eb48000000000000000000000000000000000000000000000000000000000000000b0000000000000000000000006ac25f85a8fa9a7d77b3f2165103fc0f09642b6a",
          "blockHash": "0xabbb67490251bc7187f2cbdf1f346bda62d3fcf4ea45b60c68148cf59662f099",
          "blockNumber": "0x13cf3c8",
          "transactionHash": "0x3ad379b262b969f736f4324c9f9288516e5040f3548377a38141427d19bafb76",
          "transactionIndex": "0x94",
          "logIndex": "0x179",
          "removed": false
        }
      ],
      "logsBloom": "0x00000000000000000000000000004000000000000000000000000000000000000000000000000000000000000000000000000800000000000000000000000000000000000000000008000008000000000000000000000000000000000000000000000000000000000000000000000000000000000000000000000010000800000000000000000000000020000000000000000000010000000000000000000000800000000080200000002001000000000000002000000000000000000000000000000402020000000000000020100000000000000000000010000000000000000000000000000040000000000000000000000000000000001000000000000000",
      "type": "0x0",
      "transactionHash": "0x3ad379b262b969f736f4324c9f9288516e5040f3548377a38141427d19bafb76",
      "transactionIndex": "0x94",
      "blockHash": "0xabbb67490251bc7187f2cbdf1f346bda62d3fcf4ea45b60c68148cf59662f099",
      "blockNumber": "0x13cf3c8",
      "gasUsed": "0x12b8e",
      "effectiveGasPrice": "0x4b6f432f1",
      "from": "0xc49b5e5b9da66b9126c1a62e9761e6b2147de3e1",
      "to": "0x09e52aa36484c20288d9c148458ea4da991118af",
      "contractAddress": null
    },
    {
      "status": "0x1",
      "cumulativeGasUsed": "0xd04fcb",
      "logs": [
        {
          "address": "0xa0b86991c6218b36c1d19d4a2e9eb0ce3606eb48",
          "topics": [
            "0xddf252ad1be2c89b69c2b068fc378daa952ba7f163c4a11628f55a4df523b3ef",
            "0x00000000000000000000000009e52aa36484c20288d9c148458ea4da991118af",
            "0x000000000000000000000000790ac11183dde23163b307e3f7440f2460526957"
          ],
          "data": "0x000000000000000000000000000000000000000000000000000000000000000b",
          "blockHash": "0xabbb67490251bc7187f2cbdf1f346bda62d3fcf4ea45b60c68148cf59662f099",
          "blockNumber": "0x13cf3c8",
          "transactionHash": "0x73116de365e6ce3af03dfaf59b0491d0b47d95510fe0f86de54dee264c4c06a4",
          "transactionIndex": "0x95",
          "logIndex": "0x17a",
          "removed": false
        },
        {
          "address": "0x09e52aa36484c20288d9c148458ea4da991118af",
          "topics": [
            "0x6726e5a5b6daf5db4cb05184cc812832104a3e35256d2077cecbfcbf1112a6fd"
          ],
          "data": "0x000000000000000000000000a0b86991c6218b36c1d19d4a2e9eb0ce3606eb48000000000000000000000000000000000000000000000000000000000000000b000000000000000000000000790ac11183dde23163b307e3f7440f2460526957",
          "blockHash": "0xabbb67490251bc7187f2cbdf1f346bda62d3fcf4ea45b60c68148cf59662f099",
          "blockNumber": "0x13cf3c8",
          "transactionHash": "0x73116de365e6ce3af03dfaf59b0491d0b47d95510fe0f86de54dee264c4c06a4",
          "transactionIndex": "0x95",
          "logIndex": "0x17b",
          "removed": false
        }
      ],
      "logsBloom": "0x00000000000000000000000000000000040000000000000000000000000000000000000000000000000002000000000000000800000000000000000000000000000000100000000008000008000000000000000000000000000000000000000000000000000000000000000000000000000000000000000000000010000000000020000000000000000000000000000000000000010000000000000000000000000000000080200000002000000400000000000000000000000000000000000000000002000000000000000020100000000000000000000000000000000000000000000000000000000000000000000000000000000000001000080000000000",
      "type": "0x0",
      "transactionHash": "0x73116de365e6ce3af03dfaf59b0491d0b47d95510fe0f86de54dee264c4c06a4",
      "transactionIndex": "0x95",
      "blockHash": "0xabbb67490251bc7187f2cbdf1f346bda62d3fcf4ea45b60c68148cf59662f099",
      "blockNumber": "0x13cf3c8",
      "gasUsed": "0xd4b8",
      "effectiveGasPrice": "0x4b6f432f1",
      "from": "0xc49b5e5b9da66b9126c1a62e9761e6b2147de3e1",
      "to": "0x09e52aa36484c20288d9c148458ea4da991118af",
      "contractAddress": null
    }
  ],
  "libraries": [],
  "pending": [],
  "returns": {},
  "timestamp": 1726593700,
  "chain": 1,
  "commit": "c8b065a"
}